{
  "contractName": "BigRichManGame",
  "abi": [
    {
      "inputs": [],
      "stateMutability": "nonpayable",
      "type": "constructor"
    },
    {
      "anonymous": false,
      "inputs": [
        {
          "indexed": true,
          "internalType": "address",
          "name": "account",
          "type": "address"
        },
        {
          "indexed": true,
          "internalType": "address",
          "name": "operator",
          "type": "address"
        },
        {
          "indexed": false,
          "internalType": "bool",
          "name": "approved",
          "type": "bool"
        }
      ],
      "name": "ApprovalForAll",
      "type": "event"
    },
    {
      "anonymous": false,
      "inputs": [
        {
          "indexed": true,
          "internalType": "address",
          "name": "previousOwner",
          "type": "address"
        },
        {
          "indexed": true,
          "internalType": "address",
          "name": "newOwner",
          "type": "address"
        }
      ],
      "name": "OwnershipTransferred",
      "type": "event"
    },
    {
      "anonymous": false,
      "inputs": [
        {
          "indexed": true,
          "internalType": "address",
          "name": "operator",
          "type": "address"
        },
        {
          "indexed": true,
          "internalType": "address",
          "name": "from",
          "type": "address"
        },
        {
          "indexed": true,
          "internalType": "address",
          "name": "to",
          "type": "address"
        },
        {
          "indexed": false,
          "internalType": "uint256[]",
          "name": "ids",
          "type": "uint256[]"
        },
        {
          "indexed": false,
          "internalType": "uint256[]",
          "name": "values",
          "type": "uint256[]"
        }
      ],
      "name": "TransferBatch",
      "type": "event"
    },
    {
      "anonymous": false,
      "inputs": [
        {
          "indexed": true,
          "internalType": "address",
          "name": "operator",
          "type": "address"
        },
        {
          "indexed": true,
          "internalType": "address",
          "name": "from",
          "type": "address"
        },
        {
          "indexed": true,
          "internalType": "address",
          "name": "to",
          "type": "address"
        },
        {
          "indexed": false,
          "internalType": "uint256",
          "name": "id",
          "type": "uint256"
        },
        {
          "indexed": false,
          "internalType": "uint256",
          "name": "value",
          "type": "uint256"
        }
      ],
      "name": "TransferSingle",
      "type": "event"
    },
    {
      "anonymous": false,
      "inputs": [
        {
          "indexed": false,
          "internalType": "string",
          "name": "value",
          "type": "string"
        },
        {
          "indexed": true,
          "internalType": "uint256",
          "name": "id",
          "type": "uint256"
        }
      ],
      "name": "URI",
      "type": "event"
    },
    {
      "inputs": [],
      "name": "HOUSE",
      "outputs": [
        {
          "internalType": "uint256",
          "name": "",
          "type": "uint256"
        }
      ],
      "stateMutability": "view",
      "type": "function",
      "constant": true
    },
    {
      "inputs": [],
      "name": "LAND",
      "outputs": [
        {
          "internalType": "uint256",
          "name": "",
          "type": "uint256"
        }
      ],
      "stateMutability": "view",
      "type": "function",
      "constant": true
    },
    {
      "inputs": [],
      "name": "TOKEN_COIN",
      "outputs": [
        {
          "internalType": "uint256",
          "name": "",
          "type": "uint256"
        }
      ],
      "stateMutability": "view",
      "type": "function",
      "constant": true
    },
    {
      "inputs": [
        {
          "internalType": "address",
          "name": "account",
          "type": "address"
        },
        {
          "internalType": "uint256",
          "name": "id",
          "type": "uint256"
        }
      ],
      "name": "balanceOf",
      "outputs": [
        {
          "internalType": "uint256",
          "name": "",
          "type": "uint256"
        }
      ],
      "stateMutability": "view",
      "type": "function",
      "constant": true
    },
    {
      "inputs": [
        {
          "internalType": "address[]",
          "name": "accounts",
          "type": "address[]"
        },
        {
          "internalType": "uint256[]",
          "name": "ids",
          "type": "uint256[]"
        }
      ],
      "name": "balanceOfBatch",
      "outputs": [
        {
          "internalType": "uint256[]",
          "name": "",
          "type": "uint256[]"
        }
      ],
      "stateMutability": "view",
      "type": "function",
      "constant": true
    },
    {
      "inputs": [
        {
          "internalType": "address",
          "name": "account",
          "type": "address"
        },
        {
          "internalType": "address",
          "name": "operator",
          "type": "address"
        }
      ],
      "name": "isApprovedForAll",
      "outputs": [
        {
          "internalType": "bool",
          "name": "",
          "type": "bool"
        }
      ],
      "stateMutability": "view",
      "type": "function",
      "constant": true
    },
    {
      "inputs": [],
      "name": "owner",
      "outputs": [
        {
          "internalType": "address",
          "name": "",
          "type": "address"
        }
      ],
      "stateMutability": "view",
      "type": "function",
      "constant": true
    },
    {
      "inputs": [],
      "name": "renounceOwnership",
      "outputs": [],
      "stateMutability": "nonpayable",
      "type": "function"
    },
    {
      "inputs": [
        {
          "internalType": "address",
          "name": "from",
          "type": "address"
        },
        {
          "internalType": "address",
          "name": "to",
          "type": "address"
        },
        {
          "internalType": "uint256[]",
          "name": "ids",
          "type": "uint256[]"
        },
        {
          "internalType": "uint256[]",
          "name": "amounts",
          "type": "uint256[]"
        },
        {
          "internalType": "bytes",
          "name": "data",
          "type": "bytes"
        }
      ],
      "name": "safeBatchTransferFrom",
      "outputs": [],
      "stateMutability": "nonpayable",
      "type": "function"
    },
    {
      "inputs": [
        {
          "internalType": "address",
          "name": "from",
          "type": "address"
        },
        {
          "internalType": "address",
          "name": "to",
          "type": "address"
        },
        {
          "internalType": "uint256",
          "name": "id",
          "type": "uint256"
        },
        {
          "internalType": "uint256",
          "name": "amount",
          "type": "uint256"
        },
        {
          "internalType": "bytes",
          "name": "data",
          "type": "bytes"
        }
      ],
      "name": "safeTransferFrom",
      "outputs": [],
      "stateMutability": "nonpayable",
      "type": "function"
    },
    {
      "inputs": [
        {
          "internalType": "address",
          "name": "operator",
          "type": "address"
        },
        {
          "internalType": "bool",
          "name": "approved",
          "type": "bool"
        }
      ],
      "name": "setApprovalForAll",
      "outputs": [],
      "stateMutability": "nonpayable",
      "type": "function"
    },
    {
      "inputs": [
        {
          "internalType": "bytes4",
          "name": "interfaceId",
          "type": "bytes4"
        }
      ],
      "name": "supportsInterface",
      "outputs": [
        {
          "internalType": "bool",
          "name": "",
          "type": "bool"
        }
      ],
      "stateMutability": "view",
      "type": "function",
      "constant": true
    },
    {
      "inputs": [
        {
          "internalType": "address",
          "name": "newOwner",
          "type": "address"
        }
      ],
      "name": "transferOwnership",
      "outputs": [],
      "stateMutability": "nonpayable",
      "type": "function"
    },
    {
      "inputs": [
        {
          "internalType": "uint256",
          "name": "",
          "type": "uint256"
        }
      ],
      "name": "uri",
      "outputs": [
        {
          "internalType": "string",
          "name": "",
          "type": "string"
        }
      ],
      "stateMutability": "view",
      "type": "function",
      "constant": true
    },
    {
      "inputs": [
        {
          "internalType": "address",
          "name": "account",
          "type": "address"
        },
        {
          "internalType": "uint256",
          "name": "id",
          "type": "uint256"
        },
        {
          "internalType": "uint256",
          "name": "amount",
          "type": "uint256"
        }
      ],
      "name": "mint",
      "outputs": [],
      "stateMutability": "nonpayable",
      "type": "function"
    },
    {
      "inputs": [
        {
          "internalType": "address",
          "name": "account",
          "type": "address"
        },
        {
          "internalType": "uint256",
          "name": "amount",
          "type": "uint256"
        }
      ],
      "name": "mintCurrency",
      "outputs": [],
      "stateMutability": "nonpayable",
      "type": "function"
    },
    {
      "inputs": [
        {
          "internalType": "address",
          "name": "to",
          "type": "address"
        },
        {
          "internalType": "uint256",
          "name": "id",
          "type": "uint256"
        },
        {
          "internalType": "uint256",
          "name": "amount",
          "type": "uint256"
        }
      ],
      "name": "transferToken",
      "outputs": [],
      "stateMutability": "nonpayable",
      "type": "function"
    },
    {
      "inputs": [
        {
          "internalType": "address",
          "name": "account",
          "type": "address"
        },
        {
          "internalType": "string",
          "name": "metadataUrl",
          "type": "string"
        }
      ],
      "name": "mintHouse",
      "outputs": [],
      "stateMutability": "nonpayable",
      "type": "function"
    },
    {
      "inputs": [
        {
          "internalType": "uint256",
          "name": "houseId",
          "type": "uint256"
        }
      ],
      "name": "getHouseMetadata",
      "outputs": [
        {
          "internalType": "string",
          "name": "",
          "type": "string"
        }
      ],
      "stateMutability": "view",
      "type": "function",
      "constant": true
    }
  ],
  "bytecode": "0x608060405260646004553480156200001657600080fd5b506040518060600160405280602b815260200162003e90602b913962000042816200008f60201b60201c565b506200006362000057620000ab60201b60201c565b620000b360201b60201c565b62000089336000612710604051806020016040528060008152506200017960201b60201c565b62000d18565b8060029080519060200190620000a792919062000669565b5050565b600033905090565b6000600360009054906101000a900473ffffffffffffffffffffffffffffffffffffffff16905081600360006101000a81548173ffffffffffffffffffffffffffffffffffffffff021916908373ffffffffffffffffffffffffffffffffffffffff1602179055508173ffffffffffffffffffffffffffffffffffffffff168173ffffffffffffffffffffffffffffffffffffffff167f8be0079c531659141344cd1fd0a4f28419497f9722a3daafe3b4186f6b6457e060405160405180910390a35050565b600073ffffffffffffffffffffffffffffffffffffffff168473ffffffffffffffffffffffffffffffffffffffff161415620001ec576040517f08c379a0000000000000000000000000000000000000000000000000000000008152600401620001e390620009e2565b60405180910390fd5b6000620001fe620000ab60201b60201c565b9050600062000213856200036160201b60201c565b9050600062000228856200036160201b60201c565b905062000241836000898585896200042a60201b60201c565b8460008088815260200190815260200160002060008973ffffffffffffffffffffffffffffffffffffffff1673ffffffffffffffffffffffffffffffffffffffff1681526020019081526020016000206000828254620002a2919062000a8b565b925050819055508673ffffffffffffffffffffffffffffffffffffffff16600073ffffffffffffffffffffffffffffffffffffffff168473ffffffffffffffffffffffffffffffffffffffff167fc3d58168c5ae7397731d063d5bbf3d657854427343f4c083240f7aacaa2d0f6289896040516200032292919062000a26565b60405180910390a462000341836000898585896200043260201b60201c565b62000358836000898989896200043a60201b60201c565b50505050505050565b60606000600167ffffffffffffffff811115620003a7577f4e487b7100000000000000000000000000000000000000000000000000000000600052604160045260246000fd5b604051908082528060200260200182016040528015620003d65781602001602082028036833780820191505090505b509050828160008151811062000415577f4e487b7100000000000000000000000000000000000000000000000000000000600052603260045260246000fd5b60200260200101818152505080915050919050565b505050505050565b505050505050565b620004668473ffffffffffffffffffffffffffffffffffffffff166200062a60201b62000c871760201c565b1562000622578373ffffffffffffffffffffffffffffffffffffffff1663f23a6e6187878686866040518663ffffffff1660e01b8152600401620004af95949392919062000938565b602060405180830381600087803b158015620004ca57600080fd5b505af1925050508015620004fe57506040513d601f19601f82011682018060405250810190620004fb919062000730565b60015b62000596576200050d62000c3a565b806200051a575062000559565b806040517f08c379a00000000000000000000000000000000000000000000000000000000081526004016200055091906200099c565b60405180910390fd5b6040517f08c379a00000000000000000000000000000000000000000000000000000000081526004016200058d9062000a04565b60405180910390fd5b63f23a6e6160e01b7bffffffffffffffffffffffffffffffffffffffffffffffffffffffff1916817bffffffffffffffffffffffffffffffffffffffffffffffffffffffff19161462000620576040517f08c379a00000000000000000000000000000000000000000000000000000000081526004016200061790620009c0565b60405180910390fd5b505b505050505050565b6000808273ffffffffffffffffffffffffffffffffffffffff16803b806020016040519081016040528181526000908060200190933c51119050919050565b828054620006779062000b88565b90600052602060002090601f0160209004810192826200069b5760008555620006e7565b82601f10620006b657805160ff1916838001178555620006e7565b82800160010185558215620006e7579182015b82811115620006e6578251825591602001919060010190620006c9565b5b509050620006f69190620006fa565b5090565b5b8082111562000715576000816000905550600101620006fb565b5090565b6000815190506200072a8162000cfe565b92915050565b6000602082840312156200074357600080fd5b6000620007538482850162000719565b91505092915050565b620007678162000ae8565b82525050565b60006200077a8262000a53565b62000786818562000a69565b93506200079881856020860162000b52565b620007a38162000c1c565b840191505092915050565b6000620007bb8262000a5e565b620007c7818562000a7a565b9350620007d981856020860162000b52565b620007e48162000c1c565b840191505092915050565b6000620007fe60288362000a7a565b91507f455243313135353a204552433131353552656365697665722072656a6563746560008301527f6420746f6b656e730000000000000000000000000000000000000000000000006020830152604082019050919050565b60006200086660218362000a7a565b91507f455243313135353a206d696e7420746f20746865207a65726f2061646472657360008301527f73000000000000000000000000000000000000000000000000000000000000006020830152604082019050919050565b6000620008ce60348362000a7a565b91507f455243313135353a207472616e7366657220746f206e6f6e2d4552433131353560008301527f526563656976657220696d706c656d656e7465720000000000000000000000006020830152604082019050919050565b620009328162000b48565b82525050565b600060a0820190506200094f60008301886200075c565b6200095e60208301876200075c565b6200096d604083018662000927565b6200097c606083018562000927565b81810360808301526200099081846200076d565b90509695505050505050565b60006020820190508181036000830152620009b88184620007ae565b905092915050565b60006020820190508181036000830152620009db81620007ef565b9050919050565b60006020820190508181036000830152620009fd8162000857565b9050919050565b6000602082019050818103600083015262000a1f81620008bf565b9050919050565b600060408201905062000a3d600083018562000927565b62000a4c602083018462000927565b9392505050565b600081519050919050565b600081519050919050565b600082825260208201905092915050565b600082825260208201905092915050565b600062000a988262000b48565b915062000aa58362000b48565b9250827fffffffffffffffffffffffffffffffffffffffffffffffffffffffffffffffff0382111562000add5762000adc62000bbe565b5b828201905092915050565b600062000af58262000b28565b9050919050565b60007fffffffff0000000000000000000000000000000000000000000000000000000082169050919050565b600073ffffffffffffffffffffffffffffffffffffffff82169050919050565b6000819050919050565b60005b8381101562000b7257808201518184015260208101905062000b55565b8381111562000b82576000848401525b50505050565b6000600282049050600182168062000ba157607f821691505b6020821081141562000bb85762000bb762000bed565b5b50919050565b7f4e487b7100000000000000000000000000000000000000000000000000000000600052601160045260246000fd5b7f4e487b7100000000000000000000000000000000000000000000000000000000600052602260045260246000fd5b6000601f19601f8301169050919050565b60008160e01c9050919050565b600060443d101562000c4c5762000cfb565b60046000803e62000c5f60005162000c2d565b6308c379a0811462000c72575062000cfb565b60405160043d036004823e80513d602482011167ffffffffffffffff8211171562000ca05750505062000cfb565b808201805167ffffffffffffffff81111562000cc157505050505062000cfb565b8060208301013d850181111562000cde5750505050505062000cfb565b62000ce98262000c1c565b60208401016040528296505050505050505b90565b62000d098162000afc565b811462000d1557600080fd5b50565b6131688062000d286000396000f3fe608060405234801561001057600080fd5b50600436106101205760003560e01c8063635f2a09116100ad578063cb7e657911610071578063cb7e657914610305578063ce89205b14610321578063e985e9c51461033f578063f242432a1461036f578063f2fde38b1461038b57610120565b8063635f2a0914610273578063715018a6146102a35780638da5cb5b146102ad578063a22cb465146102cb578063a3bfcb63146102e757610120565b80632e1faf75116100f45780632e1faf75146101d15780632eb2c2d6146101ed57806347597162146102095780634e1273f41461022757806352dfcb441461025757610120565b8062fdd58e1461012557806301ffc9a7146101555780630e89341c14610185578063156e29f6146101b5575b600080fd5b61013f600480360381019061013a9190612165565b6103a7565b60405161014c9190612c50565b60405180910390f35b61016f600480360381019061016a919061225c565b610470565b60405161017c9190612a53565b60405180910390f35b61019f600480360381019061019a91906122ae565b610552565b6040516101ac9190612a6e565b60405180910390f35b6101cf60048036038101906101ca91906121a1565b6105e6565b005b6101eb60048036038101906101e691906121a1565b61065c565b005b61020760048036038101906102029190611f87565b61067d565b005b61021161071e565b60405161021e9190612c50565b60405180910390f35b610241600480360381019061023c91906121f0565b610723565b60405161024e91906129fa565b60405180910390f35b610271600480360381019061026c9190612111565b6108d4565b005b61028d600480360381019061028891906122ae565b610940565b60405161029a9190612a6e565b60405180910390f35b6102ab610a48565b005b6102b5610a5c565b6040516102c2919061291d565b60405180910390f35b6102e560048036038101906102e091906120d5565b610a86565b005b6102ef610a9c565b6040516102fc9190612c50565b60405180910390f35b61031f600480360381019061031a9190612165565b610aa1565b005b610329610ac9565b6040516103369190612c50565b60405180910390f35b61035960048036038101906103549190611f4b565b610ace565b6040516103669190612a53565b60405180910390f35b61038960048036038101906103849190612046565b610b62565b005b6103a560048036038101906103a09190611f22565b610c03565b005b60008073ffffffffffffffffffffffffffffffffffffffff168373ffffffffffffffffffffffffffffffffffffffff161415610418576040517f08c379a000000000000000000000000000000000000000000000000000000000815260040161040f90612af0565b60405180910390fd5b60008083815260200190815260200160002060008473ffffffffffffffffffffffffffffffffffffffff1673ffffffffffffffffffffffffffffffffffffffff16815260200190815260200160002054905092915050565b60007fd9b67a26000000000000000000000000000000000000000000000000000000007bffffffffffffffffffffffffffffffffffffffffffffffffffffffff1916827bffffffffffffffffffffffffffffffffffffffffffffffffffffffff1916148061053b57507f0e89341c000000000000000000000000000000000000000000000000000000007bffffffffffffffffffffffffffffffffffffffffffffffffffffffff1916827bffffffffffffffffffffffffffffffffffffffffffffffffffffffff1916145b8061054b575061054a82610cc6565b5b9050919050565b60606002805461056190612efa565b80601f016020809104026020016040519081016040528092919081815260200182805461058d90612efa565b80156105da5780601f106105af576101008083540402835291602001916105da565b820191906000526020600020905b8154815290600101906020018083116105bd57829003601f168201915b50505050509050919050565b6105ee610d30565b60018214806105fd5750600282145b61063c576040517f08c379a000000000000000000000000000000000000000000000000000000000815260040161063390612b90565b60405180910390fd5b61065783838360405180602001604052806000815250610dae565b505050565b6106783384848460405180602001604052806000815250610b62565b505050565b610685610f5f565b73ffffffffffffffffffffffffffffffffffffffff168573ffffffffffffffffffffffffffffffffffffffff1614806106cb57506106ca856106c5610f5f565b610ace565b5b61070a576040517f08c379a000000000000000000000000000000000000000000000000000000000815260040161070190612b10565b60405180910390fd5b6107178585858585610f67565b5050505050565b600281565b60608151835114610769576040517f08c379a000000000000000000000000000000000000000000000000000000000815260040161076090612bd0565b60405180910390fd5b6000835167ffffffffffffffff8111156107ac577f4e487b7100000000000000000000000000000000000000000000000000000000600052604160045260246000fd5b6040519080825280602002602001820160405280156107da5781602001602082028036833780820191505090505b50905060005b84518110156108c957610873858281518110610825577f4e487b7100000000000000000000000000000000000000000000000000000000600052603260045260246000fd5b6020026020010151858381518110610866577f4e487b7100000000000000000000000000000000000000000000000000000000600052603260045260246000fd5b60200260200101516103a7565b8282815181106108ac577f4e487b7100000000000000000000000000000000000000000000000000000000600052603260045260246000fd5b602002602001018181525050806108c290612f2c565b90506107e0565b508091505092915050565b6108dc610d30565b6000600460008154809291906108f190612f2c565b9190505590506109138382600160405180602001604052806000815250610dae565b8160056000838152602001908152602001600020908051906020019061093a929190611c1a565b50505050565b6060600060056000848152602001908152602001600020805461096290612efa565b905014156109a5576040517f08c379a000000000000000000000000000000000000000000000000000000000815260040161099c90612ab0565b60405180910390fd5b6005600083815260200190815260200160002080546109c390612efa565b80601f01602080910402602001604051908101604052809291908181526020018280546109ef90612efa565b8015610a3c5780601f10610a1157610100808354040283529160200191610a3c565b820191906000526020600020905b815481529060010190602001808311610a1f57829003601f168201915b50505050509050919050565b610a50610d30565b610a5a60006112d5565b565b6000600360009054906101000a900473ffffffffffffffffffffffffffffffffffffffff16905090565b610a98610a91610f5f565b838361139b565b5050565b600081565b610aa9610d30565b610ac58260008360405180602001604052806000815250610dae565b5050565b600181565b6000600160008473ffffffffffffffffffffffffffffffffffffffff1673ffffffffffffffffffffffffffffffffffffffff16815260200190815260200160002060008373ffffffffffffffffffffffffffffffffffffffff1673ffffffffffffffffffffffffffffffffffffffff16815260200190815260200160002060009054906101000a900460ff16905092915050565b610b6a610f5f565b73ffffffffffffffffffffffffffffffffffffffff168573ffffffffffffffffffffffffffffffffffffffff161480610bb05750610baf85610baa610f5f565b610ace565b5b610bef576040517f08c379a0000000000000000000000000000000000000000000000000000000008152600401610be690612b10565b60405180910390fd5b610bfc8585858585611508565b5050505050565b610c0b610d30565b600073ffffffffffffffffffffffffffffffffffffffff168173ffffffffffffffffffffffffffffffffffffffff161415610c7b576040517f08c379a0000000000000000000000000000000000000000000000000000000008152600401610c7290612ad0565b60405180910390fd5b610c84816112d5565b50565b6000808273ffffffffffffffffffffffffffffffffffffffff16803b806020016040519081016040528181526000908060200190933c51119050919050565b60007f01ffc9a7000000000000000000000000000000000000000000000000000000007bffffffffffffffffffffffffffffffffffffffffffffffffffffffff1916827bffffffffffffffffffffffffffffffffffffffffffffffffffffffff1916149050919050565b610d38610f5f565b73ffffffffffffffffffffffffffffffffffffffff16610d56610a5c565b73ffffffffffffffffffffffffffffffffffffffff1614610dac576040517f08c379a0000000000000000000000000000000000000000000000000000000008152600401610da390612b70565b60405180910390fd5b565b600073ffffffffffffffffffffffffffffffffffffffff168473ffffffffffffffffffffffffffffffffffffffff161415610e1e576040517f08c379a0000000000000000000000000000000000000000000000000000000008152600401610e1590612c10565b60405180910390fd5b6000610e28610f5f565b90506000610e35856117a4565b90506000610e42856117a4565b9050610e538360008985858961186a565b8460008088815260200190815260200160002060008973ffffffffffffffffffffffffffffffffffffffff1673ffffffffffffffffffffffffffffffffffffffff1681526020019081526020016000206000828254610eb29190612dee565b925050819055508673ffffffffffffffffffffffffffffffffffffffff16600073ffffffffffffffffffffffffffffffffffffffff168473ffffffffffffffffffffffffffffffffffffffff167fc3d58168c5ae7397731d063d5bbf3d657854427343f4c083240f7aacaa2d0f628989604051610f30929190612c6b565b60405180910390a4610f4783600089858589611872565b610f568360008989898961187a565b50505050505050565b600033905090565b8151835114610fab576040517f08c379a0000000000000000000000000000000000000000000000000000000008152600401610fa290612bf0565b60405180910390fd5b600073ffffffffffffffffffffffffffffffffffffffff168473ffffffffffffffffffffffffffffffffffffffff16141561101b576040517f08c379a000000000000000000000000000000000000000000000000000000000815260040161101290612b30565b60405180910390fd5b6000611025610f5f565b905061103581878787878761186a565b60005b845181101561123257600085828151811061107c577f4e487b7100000000000000000000000000000000000000000000000000000000600052603260045260246000fd5b6020026020010151905060008583815181106110c1577f4e487b7100000000000000000000000000000000000000000000000000000000600052603260045260246000fd5b60200260200101519050600080600084815260200190815260200160002060008b73ffffffffffffffffffffffffffffffffffffffff1673ffffffffffffffffffffffffffffffffffffffff16815260200190815260200160002054905081811015611162576040517f08c379a000000000000000000000000000000000000000000000000000000000815260040161115990612b50565b60405180910390fd5b81810360008085815260200190815260200160002060008c73ffffffffffffffffffffffffffffffffffffffff1673ffffffffffffffffffffffffffffffffffffffff168152602001908152602001600020819055508160008085815260200190815260200160002060008b73ffffffffffffffffffffffffffffffffffffffff1673ffffffffffffffffffffffffffffffffffffffff16815260200190815260200160002060008282546112179190612dee565b925050819055505050508061122b90612f2c565b9050611038565b508473ffffffffffffffffffffffffffffffffffffffff168673ffffffffffffffffffffffffffffffffffffffff168273ffffffffffffffffffffffffffffffffffffffff167f4a39dc06d4c0dbc64b70af90fd698a233a518aa5d07e595d983b8c0526c8f7fb87876040516112a9929190612a1c565b60405180910390a46112bf818787878787611872565b6112cd818787878787611a4a565b505050505050565b6000600360009054906101000a900473ffffffffffffffffffffffffffffffffffffffff16905081600360006101000a81548173ffffffffffffffffffffffffffffffffffffffff021916908373ffffffffffffffffffffffffffffffffffffffff1602179055508173ffffffffffffffffffffffffffffffffffffffff168173ffffffffffffffffffffffffffffffffffffffff167f8be0079c531659141344cd1fd0a4f28419497f9722a3daafe3b4186f6b6457e060405160405180910390a35050565b8173ffffffffffffffffffffffffffffffffffffffff168373ffffffffffffffffffffffffffffffffffffffff16141561140a576040517f08c379a000000000000000000000000000000000000000000000000000000000815260040161140190612bb0565b60405180910390fd5b80600160008573ffffffffffffffffffffffffffffffffffffffff1673ffffffffffffffffffffffffffffffffffffffff16815260200190815260200160002060008473ffffffffffffffffffffffffffffffffffffffff1673ffffffffffffffffffffffffffffffffffffffff16815260200190815260200160002060006101000a81548160ff0219169083151502179055508173ffffffffffffffffffffffffffffffffffffffff168373ffffffffffffffffffffffffffffffffffffffff167f17307eab39ab6107e8899845ad3d59bd9653f200f220920489ca2b5937696c31836040516114fb9190612a53565b60405180910390a3505050565b600073ffffffffffffffffffffffffffffffffffffffff168473ffffffffffffffffffffffffffffffffffffffff161415611578576040517f08c379a000000000000000000000000000000000000000000000000000000000815260040161156f90612b30565b60405180910390fd5b6000611582610f5f565b9050600061158f856117a4565b9050600061159c856117a4565b90506115ac83898985858961186a565b600080600088815260200190815260200160002060008a73ffffffffffffffffffffffffffffffffffffffff1673ffffffffffffffffffffffffffffffffffffffff16815260200190815260200160002054905085811015611643576040517f08c379a000000000000000000000000000000000000000000000000000000000815260040161163a90612b50565b60405180910390fd5b85810360008089815260200190815260200160002060008b73ffffffffffffffffffffffffffffffffffffffff1673ffffffffffffffffffffffffffffffffffffffff168152602001908152602001600020819055508560008089815260200190815260200160002060008a73ffffffffffffffffffffffffffffffffffffffff1673ffffffffffffffffffffffffffffffffffffffff16815260200190815260200160002060008282546116f89190612dee565b925050819055508773ffffffffffffffffffffffffffffffffffffffff168973ffffffffffffffffffffffffffffffffffffffff168573ffffffffffffffffffffffffffffffffffffffff167fc3d58168c5ae7397731d063d5bbf3d657854427343f4c083240f7aacaa2d0f628a8a604051611775929190612c6b565b60405180910390a461178b848a8a86868a611872565b611799848a8a8a8a8a61187a565b505050505050505050565b60606000600167ffffffffffffffff8111156117e9577f4e487b7100000000000000000000000000000000000000000000000000000000600052604160045260246000fd5b6040519080825280602002602001820160405280156118175781602001602082028036833780820191505090505b5090508281600081518110611855577f4e487b7100000000000000000000000000000000000000000000000000000000600052603260045260246000fd5b60200260200101818152505080915050919050565b505050505050565b505050505050565b6118998473ffffffffffffffffffffffffffffffffffffffff16610c87565b15611a42578373ffffffffffffffffffffffffffffffffffffffff1663f23a6e6187878686866040518663ffffffff1660e01b81526004016118df9594939291906129a0565b602060405180830381600087803b1580156118f957600080fd5b505af192505050801561192a57506040513d601f19601f820116820180604052508101906119279190612285565b60015b6119b957611936613020565b80611941575061197e565b806040517f08c379a00000000000000000000000000000000000000000000000000000000081526004016119759190612a6e565b60405180910390fd5b6040517f08c379a00000000000000000000000000000000000000000000000000000000081526004016119b090612c30565b60405180910390fd5b63f23a6e6160e01b7bffffffffffffffffffffffffffffffffffffffffffffffffffffffff1916817bffffffffffffffffffffffffffffffffffffffffffffffffffffffff191614611a40576040517f08c379a0000000000000000000000000000000000000000000000000000000008152600401611a3790612a90565b60405180910390fd5b505b505050505050565b611a698473ffffffffffffffffffffffffffffffffffffffff16610c87565b15611c12578373ffffffffffffffffffffffffffffffffffffffff1663bc197c8187878686866040518663ffffffff1660e01b8152600401611aaf959493929190612938565b602060405180830381600087803b158015611ac957600080fd5b505af1925050508015611afa57506040513d601f19601f82011682018060405250810190611af79190612285565b60015b611b8957611b06613020565b80611b115750611b4e565b806040517f08c379a0000000000000000000000000000000000000000000000000000000008152600401611b459190612a6e565b60405180910390fd5b6040517f08c379a0000000000000000000000000000000000000000000000000000000008152600401611b8090612c30565b60405180910390fd5b63bc197c8160e01b7bffffffffffffffffffffffffffffffffffffffffffffffffffffffff1916817bffffffffffffffffffffffffffffffffffffffffffffffffffffffff191614611c10576040517f08c379a0000000000000000000000000000000000000000000000000000000008152600401611c0790612a90565b60405180910390fd5b505b505050505050565b828054611c2690612efa565b90600052602060002090601f016020900481019282611c485760008555611c8f565b82601f10611c6157805160ff1916838001178555611c8f565b82800160010185558215611c8f579182015b82811115611c8e578251825591602001919060010190611c73565b5b509050611c9c9190611ca0565b5090565b5b80821115611cb9576000816000905550600101611ca1565b5090565b6000611cd0611ccb84612cc5565b612c94565b90508083825260208201905082856020860282011115611cef57600080fd5b60005b85811015611d1f5781611d058882611e11565b845260208401935060208301925050600181019050611cf2565b5050509392505050565b6000611d3c611d3784612cf1565b612c94565b90508083825260208201905082856020860282011115611d5b57600080fd5b60005b85811015611d8b5781611d718882611f0d565b845260208401935060208301925050600181019050611d5e565b5050509392505050565b6000611da8611da384612d1d565b612c94565b905082815260208101848484011115611dc057600080fd5b611dcb848285612eb8565b509392505050565b6000611de6611de184612d4d565b612c94565b905082815260208101848484011115611dfe57600080fd5b611e09848285612eb8565b509392505050565b600081359050611e20816130d6565b92915050565b600082601f830112611e3757600080fd5b8135611e47848260208601611cbd565b91505092915050565b600082601f830112611e6157600080fd5b8135611e71848260208601611d29565b91505092915050565b600081359050611e89816130ed565b92915050565b600081359050611e9e81613104565b92915050565b600081519050611eb381613104565b92915050565b600082601f830112611eca57600080fd5b8135611eda848260208601611d95565b91505092915050565b600082601f830112611ef457600080fd5b8135611f04848260208601611dd3565b91505092915050565b600081359050611f1c8161311b565b92915050565b600060208284031215611f3457600080fd5b6000611f4284828501611e11565b91505092915050565b60008060408385031215611f5e57600080fd5b6000611f6c85828601611e11565b9250506020611f7d85828601611e11565b9150509250929050565b600080600080600060a08688031215611f9f57600080fd5b6000611fad88828901611e11565b9550506020611fbe88828901611e11565b945050604086013567ffffffffffffffff811115611fdb57600080fd5b611fe788828901611e50565b935050606086013567ffffffffffffffff81111561200457600080fd5b61201088828901611e50565b925050608086013567ffffffffffffffff81111561202d57600080fd5b61203988828901611eb9565b9150509295509295909350565b600080600080600060a0868803121561205e57600080fd5b600061206c88828901611e11565b955050602061207d88828901611e11565b945050604061208e88828901611f0d565b935050606061209f88828901611f0d565b925050608086013567ffffffffffffffff8111156120bc57600080fd5b6120c888828901611eb9565b9150509295509295909350565b600080604083850312156120e857600080fd5b60006120f685828601611e11565b925050602061210785828601611e7a565b9150509250929050565b6000806040838503121561212457600080fd5b600061213285828601611e11565b925050602083013567ffffffffffffffff81111561214f57600080fd5b61215b85828601611ee3565b9150509250929050565b6000806040838503121561217857600080fd5b600061218685828601611e11565b925050602061219785828601611f0d565b9150509250929050565b6000806000606084860312156121b657600080fd5b60006121c486828701611e11565b93505060206121d586828701611f0d565b92505060406121e686828701611f0d565b9150509250925092565b6000806040838503121561220357600080fd5b600083013567ffffffffffffffff81111561221d57600080fd5b61222985828601611e26565b925050602083013567ffffffffffffffff81111561224657600080fd5b61225285828601611e50565b9150509250929050565b60006020828403121561226e57600080fd5b600061227c84828501611e8f565b91505092915050565b60006020828403121561229757600080fd5b60006122a584828501611ea4565b91505092915050565b6000602082840312156122c057600080fd5b60006122ce84828501611f0d565b91505092915050565b60006122e383836128ff565b60208301905092915050565b6122f881612e44565b82525050565b600061230982612d8d565b6123138185612dbb565b935061231e83612d7d565b8060005b8381101561234f57815161233688826122d7565b975061234183612dae565b925050600181019050612322565b5085935050505092915050565b61236581612e56565b82525050565b600061237682612d98565b6123808185612dcc565b9350612390818560208601612ec7565b61239981613002565b840191505092915050565b60006123af82612da3565b6123b98185612ddd565b93506123c9818560208601612ec7565b6123d281613002565b840191505092915050565b60006123ea602883612ddd565b91507f455243313135353a204552433131353552656365697665722072656a6563746560008301527f6420746f6b656e730000000000000000000000000000000000000000000000006020830152604082019050919050565b6000612450601583612ddd565b91507f486f75736520646f6573206e6f742065786973742e00000000000000000000006000830152602082019050919050565b6000612490602683612ddd565b91507f4f776e61626c653a206e6577206f776e657220697320746865207a65726f206160008301527f64647265737300000000000000000000000000000000000000000000000000006020830152604082019050919050565b60006124f6602a83612ddd565b91507f455243313135353a2061646472657373207a65726f206973206e6f742061207660008301527f616c6964206f776e6572000000000000000000000000000000000000000000006020830152604082019050919050565b600061255c602e83612ddd565b91507f455243313135353a2063616c6c6572206973206e6f7420746f6b656e206f776e60008301527f6572206f7220617070726f7665640000000000000000000000000000000000006020830152604082019050919050565b60006125c2602583612ddd565b91507f455243313135353a207472616e7366657220746f20746865207a65726f20616460008301527f64726573730000000000000000000000000000000000000000000000000000006020830152604082019050919050565b6000612628602a83612ddd565b91507f455243313135353a20696e73756666696369656e742062616c616e636520666f60008301527f72207472616e73666572000000000000000000000000000000000000000000006020830152604082019050919050565b600061268e602083612ddd565b91507f4f776e61626c653a2063616c6c6572206973206e6f7420746865206f776e65726000830152602082019050919050565b60006126ce601083612ddd565b91507f496e76616c696420746f6b656e204944000000000000000000000000000000006000830152602082019050919050565b600061270e602983612ddd565b91507f455243313135353a2073657474696e6720617070726f76616c2073746174757360008301527f20666f722073656c6600000000000000000000000000000000000000000000006020830152604082019050919050565b6000612774602983612ddd565b91507f455243313135353a206163636f756e747320616e6420696473206c656e67746860008301527f206d69736d6174636800000000000000000000000000000000000000000000006020830152604082019050919050565b60006127da602883612ddd565b91507f455243313135353a2069647320616e6420616d6f756e7473206c656e6774682060008301527f6d69736d617463680000000000000000000000000000000000000000000000006020830152604082019050919050565b6000612840602183612ddd565b91507f455243313135353a206d696e7420746f20746865207a65726f2061646472657360008301527f73000000000000000000000000000000000000000000000000000000000000006020830152604082019050919050565b60006128a6603483612ddd565b91507f455243313135353a207472616e7366657220746f206e6f6e2d4552433131353560008301527f526563656976657220696d706c656d656e7465720000000000000000000000006020830152604082019050919050565b61290881612eae565b82525050565b61291781612eae565b82525050565b600060208201905061293260008301846122ef565b92915050565b600060a08201905061294d60008301886122ef565b61295a60208301876122ef565b818103604083015261296c81866122fe565b9050818103606083015261298081856122fe565b90508181036080830152612994818461236b565b90509695505050505050565b600060a0820190506129b560008301886122ef565b6129c260208301876122ef565b6129cf604083018661290e565b6129dc606083018561290e565b81810360808301526129ee818461236b565b90509695505050505050565b60006020820190508181036000830152612a1481846122fe565b905092915050565b60006040820190508181036000830152612a3681856122fe565b90508181036020830152612a4a81846122fe565b90509392505050565b6000602082019050612a68600083018461235c565b92915050565b60006020820190508181036000830152612a8881846123a4565b905092915050565b60006020820190508181036000830152612aa9816123dd565b9050919050565b60006020820190508181036000830152612ac981612443565b9050919050565b60006020820190508181036000830152612ae981612483565b9050919050565b60006020820190508181036000830152612b09816124e9565b9050919050565b60006020820190508181036000830152612b298161254f565b9050919050565b60006020820190508181036000830152612b49816125b5565b9050919050565b60006020820190508181036000830152612b698161261b565b9050919050565b60006020820190508181036000830152612b8981612681565b9050919050565b60006020820190508181036000830152612ba9816126c1565b9050919050565b60006020820190508181036000830152612bc981612701565b9050919050565b60006020820190508181036000830152612be981612767565b9050919050565b60006020820190508181036000830152612c09816127cd565b9050919050565b60006020820190508181036000830152612c2981612833565b9050919050565b60006020820190508181036000830152612c4981612899565b9050919050565b6000602082019050612c65600083018461290e565b92915050565b6000604082019050612c80600083018561290e565b612c8d602083018461290e565b9392505050565b6000604051905081810181811067ffffffffffffffff82111715612cbb57612cba612fd3565b5b8060405250919050565b600067ffffffffffffffff821115612ce057612cdf612fd3565b5b602082029050602081019050919050565b600067ffffffffffffffff821115612d0c57612d0b612fd3565b5b602082029050602081019050919050565b600067ffffffffffffffff821115612d3857612d37612fd3565b5b601f19601f8301169050602081019050919050565b600067ffffffffffffffff821115612d6857612d67612fd3565b5b601f19601f8301169050602081019050919050565b6000819050602082019050919050565b600081519050919050565b600081519050919050565b600081519050919050565b6000602082019050919050565b600082825260208201905092915050565b600082825260208201905092915050565b600082825260208201905092915050565b6000612df982612eae565b9150612e0483612eae565b9250827fffffffffffffffffffffffffffffffffffffffffffffffffffffffffffffffff03821115612e3957612e38612f75565b5b828201905092915050565b6000612e4f82612e8e565b9050919050565b60008115159050919050565b60007fffffffff0000000000000000000000000000000000000000000000000000000082169050919050565b600073ffffffffffffffffffffffffffffffffffffffff82169050919050565b6000819050919050565b82818337600083830152505050565b60005b83811015612ee5578082015181840152602081019050612eca565b83811115612ef4576000848401525b50505050565b60006002820490506001821680612f1257607f821691505b60208210811415612f2657612f25612fa4565b5b50919050565b6000612f3782612eae565b91507fffffffffffffffffffffffffffffffffffffffffffffffffffffffffffffffff821415612f6a57612f69612f75565b5b600182019050919050565b7f4e487b7100000000000000000000000000000000000000000000000000000000600052601160045260246000fd5b7f4e487b7100000000000000000000000000000000000000000000000000000000600052602260045260246000fd5b7f4e487b7100000000000000000000000000000000000000000000000000000000600052604160045260246000fd5b6000601f19601f8301169050919050565b60008160e01c9050919050565b600060443d1015613030576130d3565b60046000803e613041600051613013565b6308c379a0811461305257506130d3565b60405160043d036004823e80513d602482011167ffffffffffffffff8211171561307e575050506130d3565b808201805167ffffffffffffffff81111561309d5750505050506130d3565b8060208301013d85018111156130b8575050505050506130d3565b6130c182613002565b60208401016040528296505050505050505b90565b6130df81612e44565b81146130ea57600080fd5b50565b6130f681612e56565b811461310157600080fd5b50565b61310d81612e62565b811461311857600080fd5b50565b61312481612eae565b811461312f57600080fd5b5056fea2646970667358221220157c2a2e6d6ab0ea05e0a29345464167a28ef0a893324cc8374d60b5df056ed364736f6c6343000800003368747470733a2f2f67616d652e6578616d706c652e636f6d2f6170692f6974656d2f7b69647d2e6a736f6e",
  "immutableReferences": {},
  "source": "// SPDX-License-Identifier: MIT\r\npragma solidity ^0.8.0;\r\n\r\n//  OpenZeppelin  ERC1155  Ownable \r\nimport \"@openzeppelin/contracts/token/ERC1155/ERC1155.sol\";\r\nimport \"@openzeppelin/contracts/access/Ownable.sol\";\r\n\r\n//  BigRichManGame  ERC1155  Ownable\r\ncontract BigRichManGame is ERC1155, Ownable {\r\n    uint256 public constant TOKEN_COIN = 0; //  ID0\r\n    uint256 public constant LAND = 1; //  ID1\r\n    uint256 public constant HOUSE = 2; //  ID2\r\n\r\n    //  ID\r\n    uint256 private _nextHouseId = 100;\r\n\r\n    //  metadata URL\r\n    mapping(uint256 => string) private _houseMetadataUrls;\r\n\r\n    //  metadata  URL \r\n    constructor() ERC1155(\"https://game.example.com/api/item/{id}.json\") {\r\n        _mint(msg.sender, TOKEN_COIN, 10000, \"\"); // 10000\r\n    }\r\n\r\n    // \r\n    function mint(\r\n        address account,\r\n        uint256 id,\r\n        uint256 amount\r\n    ) public onlyOwner {\r\n        require(id == LAND || id == HOUSE, \"Invalid token ID\"); // \r\n        _mint(account, id, amount, \"\");\r\n    }\r\n\r\n    // \r\n    function mintCurrency(address account, uint256 amount) public onlyOwner {\r\n        _mint(account, TOKEN_COIN, amount, \"\"); // \r\n    }\r\n\r\n    // \r\n    function transferToken(address to, uint256 id, uint256 amount) public {\r\n        safeTransferFrom(msg.sender, to, id, amount, \"\"); // \r\n    }\r\n\r\n    // \r\n    function mintHouse(\r\n        address account,\r\n        string memory metadataUrl\r\n    ) public onlyOwner {\r\n        uint256 currentHouseId = _nextHouseId++; //  ID \r\n        _mint(account, currentHouseId, 1, \"\"); // \r\n        _houseMetadataUrls[currentHouseId] = metadataUrl; //  metadata URL\r\n    }\r\n\r\n    //  metadata\r\n    function getHouseMetadata(\r\n        uint256 houseId\r\n    ) public view returns (string memory) {\r\n        require(\r\n            bytes(_houseMetadataUrls[houseId]).length != 0,\r\n            \"House does not exist.\"\r\n        ); // \r\n        return _houseMetadataUrls[houseId]; //  metadata URL\r\n    }\r\n}\r\n",
  "sourcePath": "D:\\112-2\\lab\\monopolydapp\\contracts\\BigRichManGame.sol",
  "compiler": {
    "name": "solc",
    "version": "0.8.0+commit.c7dfd78e.Emscripten.clang"
  },
  "schemaVersion": "3.4.16",
  "updatedAt": "2024-06-19T12:29:11.103Z",
  "networkType": "ethereum",
  "devdoc": {
    "kind": "dev",
    "methods": {
      "balanceOf(address,uint256)": {
        "details": "See {IERC1155-balanceOf}. Requirements: - `account` cannot be the zero address."
      },
      "balanceOfBatch(address[],uint256[])": {
        "details": "See {IERC1155-balanceOfBatch}. Requirements: - `accounts` and `ids` must have the same length."
      },
      "isApprovedForAll(address,address)": {
        "details": "See {IERC1155-isApprovedForAll}."
      },
      "owner()": {
        "details": "Returns the address of the current owner."
      },
      "renounceOwnership()": {
        "details": "Leaves the contract without owner. It will not be possible to call `onlyOwner` functions. Can only be called by the current owner. NOTE: Renouncing ownership will leave the contract without an owner, thereby disabling any functionality that is only available to the owner."
      },
      "safeBatchTransferFrom(address,address,uint256[],uint256[],bytes)": {
        "details": "See {IERC1155-safeBatchTransferFrom}."
      },
      "safeTransferFrom(address,address,uint256,uint256,bytes)": {
        "details": "See {IERC1155-safeTransferFrom}."
      },
      "setApprovalForAll(address,bool)": {
        "details": "See {IERC1155-setApprovalForAll}."
      },
      "supportsInterface(bytes4)": {
        "details": "See {IERC165-supportsInterface}."
      },
      "transferOwnership(address)": {
        "details": "Transfers ownership of the contract to a new account (`newOwner`). Can only be called by the current owner."
      },
      "uri(uint256)": {
        "details": "See {IERC1155MetadataURI-uri}. This implementation returns the same URI for *all* token types. It relies on the token type ID substitution mechanism https://eips.ethereum.org/EIPS/eip-1155#metadata[defined in the EIP]. Clients calling this function must replace the `\\{id\\}` substring with the actual token type ID."
      }
    },
    "version": 1
  },
  "userdoc": {
    "kind": "user",
    "methods": {},
    "version": 1
  }
}