{
  "contractName": "GameRoom",
  "abi": [
    {
      "anonymous": false,
      "inputs": [
        {
          "indexed": false,
          "internalType": "uint256",
          "name": "roomId",
          "type": "uint256"
        },
        {
          "indexed": false,
          "internalType": "address",
          "name": "player",
          "type": "address"
        }
      ],
      "name": "PlayerJoined",
      "type": "event"
    },
    {
      "anonymous": false,
      "inputs": [
        {
          "indexed": false,
          "internalType": "uint256",
          "name": "roomId",
          "type": "uint256"
        },
        {
          "indexed": false,
          "internalType": "address",
          "name": "player",
          "type": "address"
        }
      ],
      "name": "PlayerLeft",
      "type": "event"
    },
    {
      "anonymous": false,
      "inputs": [
        {
          "indexed": false,
          "internalType": "uint256",
          "name": "roomId",
          "type": "uint256"
        },
        {
          "indexed": false,
          "internalType": "address",
          "name": "creator",
          "type": "address"
        },
        {
          "indexed": false,
          "internalType": "uint256",
          "name": "maxPlayers",
          "type": "uint256"
        },
        {
          "indexed": false,
          "internalType": "string",
          "name": "gameMode",
          "type": "string"
        }
      ],
      "name": "RoomCreated",
      "type": "event"
    },
    {
      "inputs": [],
      "name": "nextRoomId",
      "outputs": [
        {
          "internalType": "uint256",
          "name": "",
          "type": "uint256"
        }
      ],
      "stateMutability": "view",
      "type": "function",
      "constant": true
    },
    {
      "inputs": [
        {
          "internalType": "uint256",
          "name": "",
          "type": "uint256"
        }
      ],
      "name": "rooms",
      "outputs": [
        {
          "internalType": "uint256",
          "name": "id",
          "type": "uint256"
        },
        {
          "internalType": "address",
          "name": "creator",
          "type": "address"
        },
        {
          "internalType": "uint256",
          "name": "maxPlayers",
          "type": "uint256"
        },
        {
          "internalType": "string",
          "name": "gameMode",
          "type": "string"
        },
        {
          "internalType": "bytes32",
          "name": "passwordHash",
          "type": "bytes32"
        }
      ],
      "stateMutability": "view",
      "type": "function",
      "constant": true
    },
    {
      "inputs": [
        {
          "internalType": "uint256",
          "name": "maxPlayers",
          "type": "uint256"
        },
        {
          "internalType": "string",
          "name": "gameMode",
          "type": "string"
        },
        {
          "internalType": "string",
          "name": "password",
          "type": "string"
        }
      ],
      "name": "createRoom",
      "outputs": [
        {
          "internalType": "uint256",
          "name": "",
          "type": "uint256"
        }
      ],
      "stateMutability": "payable",
      "type": "function",
      "payable": true
    },
    {
      "inputs": [
        {
          "internalType": "uint256",
          "name": "roomId",
          "type": "uint256"
        },
        {
          "internalType": "string",
          "name": "password",
          "type": "string"
        }
      ],
      "name": "joinRoom",
      "outputs": [],
      "stateMutability": "payable",
      "type": "function",
      "payable": true
    },
    {
      "inputs": [
        {
          "internalType": "uint256",
          "name": "roomId",
          "type": "uint256"
        }
      ],
      "name": "leaveRoom",
      "outputs": [],
      "stateMutability": "nonpayable",
      "type": "function"
    },
    {
      "inputs": [
        {
          "internalType": "uint256",
          "name": "roomId",
          "type": "uint256"
        }
      ],
      "name": "getRoom",
      "outputs": [
        {
          "components": [
            {
              "internalType": "uint256",
              "name": "id",
              "type": "uint256"
            },
            {
              "internalType": "address",
              "name": "creator",
              "type": "address"
            },
            {
              "internalType": "uint256",
              "name": "maxPlayers",
              "type": "uint256"
            },
            {
              "internalType": "string",
              "name": "gameMode",
              "type": "string"
            },
            {
              "internalType": "address[]",
              "name": "players",
              "type": "address[]"
            },
            {
              "internalType": "bytes32",
              "name": "passwordHash",
              "type": "bytes32"
            }
          ],
          "internalType": "struct GameRoom.Room",
          "name": "",
          "type": "tuple"
        }
      ],
      "stateMutability": "view",
      "type": "function",
      "constant": true
    }
  ],
  "bytecode": "0x608060405234801561001057600080fd5b506117fa806100206000396000f3fe6080604052600436106100555760003560e01c806307a52cab1461005a5780631bae0ac8146100855780636d8a74cb146100c6578063779db573146101035780637fcd07d11461012c578063b01a5da21461015c575b600080fd5b34801561006657600080fd5b5061006f610178565b60405161007c919061141c565b60405180910390f35b34801561009157600080fd5b506100ac60048036038101906100a79190610f64565b61017e565b6040516100bd9594939291906114ac565b60405180910390f35b3480156100d257600080fd5b506100ed60048036038101906100e89190610f64565b61025c565b6040516100fa91906113fa565b60405180910390f35b34801561010f57600080fd5b5061012a60048036038101906101259190610f64565b61041c565b005b61014660048036038101906101419190610fe1565b610816565b604051610153919061141c565b60405180910390f35b61017660048036038101906101719190610f8d565b610a60565b005b60015481565b60006020528060005260406000206000915090508060000154908060010160009054906101000a900473ffffffffffffffffffffffffffffffffffffffff16908060020154908060030180546101d390611694565b80601f01602080910402602001604051908101604052809291908181526020018280546101ff90611694565b801561024c5780601f106102215761010080835404028352916020019161024c565b820191906000526020600020905b81548152906001019060200180831161022f57829003601f168201915b5050505050908060050154905085565b610264610d0a565b6000808381526020019081526020016000206040518060c0016040529081600082015481526020016001820160009054906101000a900473ffffffffffffffffffffffffffffffffffffffff1673ffffffffffffffffffffffffffffffffffffffff1673ffffffffffffffffffffffffffffffffffffffff168152602001600282015481526020016003820180546102fb90611694565b80601f016020809104026020016040519081016040528092919081815260200182805461032790611694565b80156103745780601f1061034957610100808354040283529160200191610374565b820191906000526020600020905b81548152906001019060200180831161035757829003601f168201915b505050505081526020016004820180548060200260200160405190810160405280929190818152602001828054801561040257602002820191906000526020600020905b8160009054906101000a900473ffffffffffffffffffffffffffffffffffffffff1673ffffffffffffffffffffffffffffffffffffffff16815260200190600101908083116103b8575b505050505081526020016005820154815250509050919050565b600080600083815260200190815260200160002090503373ffffffffffffffffffffffffffffffffffffffff168160010160009054906101000a900473ffffffffffffffffffffffffffffffffffffffff1673ffffffffffffffffffffffffffffffffffffffff16148061049657506104958233610c1c565b5b6104d5576040517f08c379a00000000000000000000000000000000000000000000000000000000081526004016104cc906113ba565b60405180910390fd5b3373ffffffffffffffffffffffffffffffffffffffff168160010160009054906101000a900473ffffffffffffffffffffffffffffffffffffffff1673ffffffffffffffffffffffffffffffffffffffff1614156105a6576000808381526020019081526020016000206000808201600090556001820160006101000a81549073ffffffffffffffffffffffffffffffffffffffff021916905560028201600090556003820160006105879190610d59565b6004820160006105979190610d99565b600582016000905550506107d9565b60005b81600401805490508110156107d7573373ffffffffffffffffffffffffffffffffffffffff1682600401828154811061060b577f4e487b7100000000000000000000000000000000000000000000000000000000600052603260045260246000fd5b9060005260206000200160009054906101000a900473ffffffffffffffffffffffffffffffffffffffff1673ffffffffffffffffffffffffffffffffffffffff1614156107c457816004016001836004018054905061066a91906115d8565b815481106106a1577f4e487b7100000000000000000000000000000000000000000000000000000000600052603260045260246000fd5b9060005260206000200160009054906101000a900473ffffffffffffffffffffffffffffffffffffffff16826004018281548110610708577f4e487b7100000000000000000000000000000000000000000000000000000000600052603260045260246000fd5b9060005260206000200160006101000a81548173ffffffffffffffffffffffffffffffffffffffff021916908373ffffffffffffffffffffffffffffffffffffffff1602179055508160040180548061078a577f4e487b7100000000000000000000000000000000000000000000000000000000600052603160045260246000fd5b6001900381819060005260206000200160006101000a81549073ffffffffffffffffffffffffffffffffffffffff021916905590556107d7565b80806107cf906116c6565b9150506105a9565b505b7fb2bd643202385c64d9814c6c3fa61b1ba098d6652292e9d9a6f1a0cdae6eb824823360405161080a929190611437565b60405180910390a15050565b6000670de0b6b3a76400003414610862576040517f08c379a0000000000000000000000000000000000000000000000000000000008152600401610859906113da565b60405180910390fd5b6040518060c0016040528060015481526020013373ffffffffffffffffffffffffffffffffffffffff168152602001858152602001848152602001600067ffffffffffffffff8111156108de577f4e487b7100000000000000000000000000000000000000000000000000000000600052604160045260246000fd5b60405190808252806020026020018201604052801561090c5781602001602082028036833780820191505090505b508152602001836040516020016109239190611363565b6040516020818303038152906040528051906020012081525060008060015481526020019081526020016000206000820151816000015560208201518160010160006101000a81548173ffffffffffffffffffffffffffffffffffffffff021916908373ffffffffffffffffffffffffffffffffffffffff1602179055506040820151816002015560608201518160030190805190602001906109c7929190610dba565b5060808201518160040190805190602001906109e4929190610e40565b5060a082015181600501559050507f7f74d7384a8aef956fbcfeef5c43386419836b40e2cf4ba72b144901b865dbf3600154338686604051610a299493929190611460565b60405180910390a160016000815480929190610a44906116c6565b919050555060018054610a5791906115d8565b90509392505050565b670de0b6b3a76400003414610aaa576040517f08c379a0000000000000000000000000000000000000000000000000000000008152600401610aa1906113da565b60405180910390fd5b600080600084815260200190815260200160002090508060020154816004018054905010610b0d576040517f08c379a0000000000000000000000000000000000000000000000000000000008152600401610b049061139a565b60405180910390fd5b81604051602001610b1e9190611363565b60405160208183030381529060405280519060200120816005015414610b79576040517f08c379a0000000000000000000000000000000000000000000000000000000008152600401610b709061137a565b60405180910390fd5b80600401339080600181540180825580915050600190039060005260206000200160009091909190916101000a81548173ffffffffffffffffffffffffffffffffffffffff021916908373ffffffffffffffffffffffffffffffffffffffff1602179055507f87969bc7faf902221a147b95ceba76e011c5efb0339a0a8ee7a2bb82d9cfbbd68333604051610c0f929190611437565b60405180910390a1505050565b600080600080858152602001908152602001600020905060005b8160040180549050811015610cfd578373ffffffffffffffffffffffffffffffffffffffff16826004018281548110610c98577f4e487b7100000000000000000000000000000000000000000000000000000000600052603260045260246000fd5b9060005260206000200160009054906101000a900473ffffffffffffffffffffffffffffffffffffffff1673ffffffffffffffffffffffffffffffffffffffff161415610cea57600192505050610d04565b8080610cf5906116c6565b915050610c36565b5060009150505b92915050565b6040518060c0016040528060008152602001600073ffffffffffffffffffffffffffffffffffffffff168152602001600081526020016060815260200160608152602001600080191681525090565b508054610d6590611694565b6000825580601f10610d775750610d96565b601f016020900490600052602060002090810190610d959190610eca565b5b50565b5080546000825590600052602060002090810190610db79190610eca565b50565b828054610dc690611694565b90600052602060002090601f016020900481019282610de85760008555610e2f565b82601f10610e0157805160ff1916838001178555610e2f565b82800160010185558215610e2f579182015b82811115610e2e578251825591602001919060010190610e13565b5b509050610e3c9190610eca565b5090565b828054828255906000526020600020908101928215610eb9579160200282015b82811115610eb85782518260006101000a81548173ffffffffffffffffffffffffffffffffffffffff021916908373ffffffffffffffffffffffffffffffffffffffff16021790555091602001919060010190610e60565b5b509050610ec69190610eca565b5090565b5b80821115610ee3576000816000905550600101610ecb565b5090565b6000610efa610ef584611537565b611506565b905082815260208101848484011115610f1257600080fd5b610f1d848285611652565b509392505050565b600082601f830112610f3657600080fd5b8135610f46848260208601610ee7565b91505092915050565b600081359050610f5e816117ad565b92915050565b600060208284031215610f7657600080fd5b6000610f8484828501610f4f565b91505092915050565b60008060408385031215610fa057600080fd5b6000610fae85828601610f4f565b925050602083013567ffffffffffffffff811115610fcb57600080fd5b610fd785828601610f25565b9150509250929050565b600080600060608486031215610ff657600080fd5b600061100486828701610f4f565b935050602084013567ffffffffffffffff81111561102157600080fd5b61102d86828701610f25565b925050604084013567ffffffffffffffff81111561104a57600080fd5b61105686828701610f25565b9150509250925092565b600061106c8383611078565b60208301905092915050565b6110818161160c565b82525050565b6110908161160c565b82525050565b60006110a182611577565b6110ab818561159a565b93506110b683611567565b8060005b838110156110e75781516110ce8882611060565b97506110d98361158d565b9250506001810190506110ba565b5085935050505092915050565b6110fd8161161e565b82525050565b61110c8161161e565b82525050565b600061111d82611582565b61112781856115ab565b9350611137818560208601611661565b6111408161179c565b840191505092915050565b600061115682611582565b61116081856115bc565b9350611170818560208601611661565b6111798161179c565b840191505092915050565b600061118f82611582565b61119981856115cd565b93506111a9818560208601611661565b80840191505092915050565b60006111c26012836115bc565b91507f496e636f72726563742070617373776f726400000000000000000000000000006000830152602082019050919050565b6000611202600c836115bc565b91507f526f6f6d2069732066756c6c00000000000000000000000000000000000000006000830152602082019050919050565b60006112426018836115bc565b91507f596f7520617265206e6f7420696e207468697320726f6f6d00000000000000006000830152602082019050919050565b60006112826020836115bc565b91507f4d7573742073656e6420312045544820746f20637265617465206120726f6f6d6000830152602082019050919050565b600060c0830160008301516112cd6000860182611345565b5060208301516112e06020860182611078565b5060408301516112f36040860182611345565b506060830151848203606086015261130b8282611112565b915050608083015184820360808601526113258282611096565b91505060a083015161133a60a08601826110f4565b508091505092915050565b61134e81611648565b82525050565b61135d81611648565b82525050565b600061136f8284611184565b915081905092915050565b60006020820190508181036000830152611393816111b5565b9050919050565b600060208201905081810360008301526113b3816111f5565b9050919050565b600060208201905081810360008301526113d381611235565b9050919050565b600060208201905081810360008301526113f381611275565b9050919050565b6000602082019050818103600083015261141481846112b5565b905092915050565b60006020820190506114316000830184611354565b92915050565b600060408201905061144c6000830185611354565b6114596020830184611087565b9392505050565b60006080820190506114756000830187611354565b6114826020830186611087565b61148f6040830185611354565b81810360608301526114a1818461114b565b905095945050505050565b600060a0820190506114c16000830188611354565b6114ce6020830187611087565b6114db6040830186611354565b81810360608301526114ed818561114b565b90506114fc6080830184611103565b9695505050505050565b6000604051905081810181811067ffffffffffffffff8211171561152d5761152c61176d565b5b8060405250919050565b600067ffffffffffffffff8211156115525761155161176d565b5b601f19601f8301169050602081019050919050565b6000819050602082019050919050565b600081519050919050565b600081519050919050565b6000602082019050919050565b600082825260208201905092915050565b600082825260208201905092915050565b600082825260208201905092915050565b600081905092915050565b60006115e382611648565b91506115ee83611648565b9250828210156116015761160061170f565b5b828203905092915050565b600061161782611628565b9050919050565b6000819050919050565b600073ffffffffffffffffffffffffffffffffffffffff82169050919050565b6000819050919050565b82818337600083830152505050565b60005b8381101561167f578082015181840152602081019050611664565b8381111561168e576000848401525b50505050565b600060028204905060018216806116ac57607f821691505b602082108114156116c0576116bf61173e565b5b50919050565b60006116d182611648565b91507fffffffffffffffffffffffffffffffffffffffffffffffffffffffffffffffff8214156117045761170361170f565b5b600182019050919050565b7f4e487b7100000000000000000000000000000000000000000000000000000000600052601160045260246000fd5b7f4e487b7100000000000000000000000000000000000000000000000000000000600052602260045260246000fd5b7f4e487b7100000000000000000000000000000000000000000000000000000000600052604160045260246000fd5b6000601f19601f8301169050919050565b6117b681611648565b81146117c157600080fd5b5056fea26469706673582212203a22c6c3c10b5896a3169f7f6bd9af5a9907bcb788049721bc801c77f8b4c1d364736f6c63430008000033",
  "immutableReferences": {},
  "source": "pragma solidity ^0.8.0;\r\n\r\ncontract GameRoom {\r\n    // \r\n    struct Room {\r\n        uint id; // ID\r\n        address creator; // \r\n        uint maxPlayers; // \r\n        string gameMode; // \r\n        address[] players; // \r\n        bytes32 passwordHash; //  bytes32 \r\n    }\r\n\r\n    mapping(uint => Room) public rooms; // ID\r\n    uint public nextRoomId; // ID\r\n\r\n    // \r\n    event RoomCreated(uint roomId, address creator, uint maxPlayers, string gameMode);\r\n    // \r\n    event PlayerJoined(uint roomId, address player);\r\n    // \r\n    event PlayerLeft(uint roomId, address player);\r\n\r\n    // \r\n    function createRoom(uint maxPlayers, string memory gameMode, string memory password) public payable returns (uint){\r\n        require(msg.value == 1 ether, \"Must send 1 ETH to create a room\");\r\n\r\n        rooms[nextRoomId] = Room({\r\n            id: nextRoomId, // ID\r\n            creator: msg.sender, // \r\n            maxPlayers: maxPlayers, // \r\n            gameMode: gameMode, // \r\n            passwordHash: keccak256(abi.encodePacked(password)), //  bytes32 \r\n            players: new address[](0)   // \r\n        }); \r\n        \r\n        emit RoomCreated(nextRoomId, msg.sender, maxPlayers, gameMode); // \r\n        nextRoomId++; // ID\r\n        return nextRoomId - 1; // ID\r\n    }\r\n\r\n    // \r\n    function joinRoom(uint roomId, string memory password) public payable {\r\n        require(msg.value == 1 ether, \"Must send 1 ETH to create a room\");\r\n        \r\n        Room storage room = rooms[roomId];\r\n        require(room.players.length < room.maxPlayers, \"Room is full\");\r\n\r\n        // \r\n        require(room.passwordHash == keccak256(abi.encodePacked(password)), \"Incorrect password\");\r\n\r\n        room.players.push(msg.sender);\r\n        emit PlayerJoined(roomId, msg.sender);\r\n    }\r\n\r\n    // \r\n    function leaveRoom(uint roomId) public {\r\n        Room storage room = rooms[roomId];\r\n        require(room.creator == msg.sender || isPlayerInRoom(roomId, msg.sender), \"You are not in this room\");\r\n\r\n        // \r\n        if (room.creator == msg.sender) {\r\n            delete rooms[roomId];\r\n        } else {\r\n            // \r\n            for (uint i = 0; i < room.players.length; i++) {\r\n                if (room.players[i] == msg.sender) {\r\n                    room.players[i] = room.players[room.players.length - 1];\r\n                    room.players.pop();\r\n                    break;\r\n                }\r\n            }\r\n        }\r\n        emit PlayerLeft(roomId, msg.sender);\r\n    }\r\n    \r\n    // \r\n    function isPlayerInRoom(uint roomId, address player) internal view returns (bool) {\r\n        Room storage room = rooms[roomId];\r\n        for (uint i = 0; i < room.players.length; i++) {\r\n            if (room.players[i] == player) {\r\n                return true;\r\n            }\r\n        }\r\n        return false;\r\n    }\r\n\r\n    // \r\n    function getRoom(uint roomId) public view returns (Room memory) {\r\n        return rooms[roomId];\r\n    }\r\n}\r\n",
  "sourcePath": "D:\\112-2\\lab\\monopolydapp\\contracts\\GameRoom.sol",
  "compiler": {
    "name": "solc",
    "version": "0.8.0+commit.c7dfd78e.Emscripten.clang"
  },
  "schemaVersion": "3.4.16",
  "updatedAt": "2024-06-19T12:29:11.313Z",
  "networkType": "ethereum",
  "devdoc": {
    "kind": "dev",
    "methods": {},
    "version": 1
  },
  "userdoc": {
    "kind": "user",
    "methods": {},
    "version": 1
  }
}