{
  "contractName": "GameItems",
  "abi": [
    {
      "inputs": [],
      "stateMutability": "nonpayable",
      "type": "constructor"
    },
    {
      "anonymous": false,
      "inputs": [
        {
          "indexed": true,
          "internalType": "address",
          "name": "account",
          "type": "address"
        },
        {
          "indexed": true,
          "internalType": "address",
          "name": "operator",
          "type": "address"
        },
        {
          "indexed": false,
          "internalType": "bool",
          "name": "approved",
          "type": "bool"
        }
      ],
      "name": "ApprovalForAll",
      "type": "event"
    },
    {
      "anonymous": false,
      "inputs": [
        {
          "indexed": true,
          "internalType": "address",
          "name": "operator",
          "type": "address"
        },
        {
          "indexed": true,
          "internalType": "address",
          "name": "from",
          "type": "address"
        },
        {
          "indexed": true,
          "internalType": "address",
          "name": "to",
          "type": "address"
        },
        {
          "indexed": false,
          "internalType": "uint256[]",
          "name": "ids",
          "type": "uint256[]"
        },
        {
          "indexed": false,
          "internalType": "uint256[]",
          "name": "values",
          "type": "uint256[]"
        }
      ],
      "name": "TransferBatch",
      "type": "event"
    },
    {
      "anonymous": false,
      "inputs": [
        {
          "indexed": true,
          "internalType": "address",
          "name": "operator",
          "type": "address"
        },
        {
          "indexed": true,
          "internalType": "address",
          "name": "from",
          "type": "address"
        },
        {
          "indexed": true,
          "internalType": "address",
          "name": "to",
          "type": "address"
        },
        {
          "indexed": false,
          "internalType": "uint256",
          "name": "id",
          "type": "uint256"
        },
        {
          "indexed": false,
          "internalType": "uint256",
          "name": "value",
          "type": "uint256"
        }
      ],
      "name": "TransferSingle",
      "type": "event"
    },
    {
      "anonymous": false,
      "inputs": [
        {
          "indexed": false,
          "internalType": "string",
          "name": "value",
          "type": "string"
        },
        {
          "indexed": true,
          "internalType": "uint256",
          "name": "id",
          "type": "uint256"
        }
      ],
      "name": "URI",
      "type": "event"
    },
    {
      "inputs": [],
      "name": "GOLD",
      "outputs": [
        {
          "internalType": "uint256",
          "name": "",
          "type": "uint256"
        }
      ],
      "stateMutability": "view",
      "type": "function"
    },
    {
      "inputs": [],
      "name": "SHIELD",
      "outputs": [
        {
          "internalType": "uint256",
          "name": "",
          "type": "uint256"
        }
      ],
      "stateMutability": "view",
      "type": "function"
    },
    {
      "inputs": [],
      "name": "SILVER",
      "outputs": [
        {
          "internalType": "uint256",
          "name": "",
          "type": "uint256"
        }
      ],
      "stateMutability": "view",
      "type": "function"
    },
    {
      "inputs": [],
      "name": "SWORD",
      "outputs": [
        {
          "internalType": "uint256",
          "name": "",
          "type": "uint256"
        }
      ],
      "stateMutability": "view",
      "type": "function"
    },
    {
      "inputs": [],
      "name": "THORS_HAMMER",
      "outputs": [
        {
          "internalType": "uint256",
          "name": "",
          "type": "uint256"
        }
      ],
      "stateMutability": "view",
      "type": "function"
    },
    {
      "inputs": [
        {
          "internalType": "address",
          "name": "account",
          "type": "address"
        },
        {
          "internalType": "uint256",
          "name": "id",
          "type": "uint256"
        }
      ],
      "name": "balanceOf",
      "outputs": [
        {
          "internalType": "uint256",
          "name": "",
          "type": "uint256"
        }
      ],
      "stateMutability": "view",
      "type": "function"
    },
    {
      "inputs": [
        {
          "internalType": "address[]",
          "name": "accounts",
          "type": "address[]"
        },
        {
          "internalType": "uint256[]",
          "name": "ids",
          "type": "uint256[]"
        }
      ],
      "name": "balanceOfBatch",
      "outputs": [
        {
          "internalType": "uint256[]",
          "name": "",
          "type": "uint256[]"
        }
      ],
      "stateMutability": "view",
      "type": "function"
    },
    {
      "inputs": [
        {
          "internalType": "address",
          "name": "account",
          "type": "address"
        },
        {
          "internalType": "address",
          "name": "operator",
          "type": "address"
        }
      ],
      "name": "isApprovedForAll",
      "outputs": [
        {
          "internalType": "bool",
          "name": "",
          "type": "bool"
        }
      ],
      "stateMutability": "view",
      "type": "function"
    },
    {
      "inputs": [
        {
          "internalType": "address",
          "name": "from",
          "type": "address"
        },
        {
          "internalType": "address",
          "name": "to",
          "type": "address"
        },
        {
          "internalType": "uint256[]",
          "name": "ids",
          "type": "uint256[]"
        },
        {
          "internalType": "uint256[]",
          "name": "amounts",
          "type": "uint256[]"
        },
        {
          "internalType": "bytes",
          "name": "data",
          "type": "bytes"
        }
      ],
      "name": "safeBatchTransferFrom",
      "outputs": [],
      "stateMutability": "nonpayable",
      "type": "function"
    },
    {
      "inputs": [
        {
          "internalType": "address",
          "name": "from",
          "type": "address"
        },
        {
          "internalType": "address",
          "name": "to",
          "type": "address"
        },
        {
          "internalType": "uint256",
          "name": "id",
          "type": "uint256"
        },
        {
          "internalType": "uint256",
          "name": "amount",
          "type": "uint256"
        },
        {
          "internalType": "bytes",
          "name": "data",
          "type": "bytes"
        }
      ],
      "name": "safeTransferFrom",
      "outputs": [],
      "stateMutability": "nonpayable",
      "type": "function"
    },
    {
      "inputs": [
        {
          "internalType": "address",
          "name": "operator",
          "type": "address"
        },
        {
          "internalType": "bool",
          "name": "approved",
          "type": "bool"
        }
      ],
      "name": "setApprovalForAll",
      "outputs": [],
      "stateMutability": "nonpayable",
      "type": "function"
    },
    {
      "inputs": [
        {
          "internalType": "bytes4",
          "name": "interfaceId",
          "type": "bytes4"
        }
      ],
      "name": "supportsInterface",
      "outputs": [
        {
          "internalType": "bool",
          "name": "",
          "type": "bool"
        }
      ],
      "stateMutability": "view",
      "type": "function"
    },
    {
      "inputs": [
        {
          "internalType": "uint256",
          "name": "",
          "type": "uint256"
        }
      ],
      "name": "uri",
      "outputs": [
        {
          "internalType": "string",
          "name": "",
          "type": "string"
        }
      ],
      "stateMutability": "view",
      "type": "function"
    }
  ],
  "bytecode": "0x60806040523480156200001157600080fd5b5060405180606001604052806027815260200162003328602791396200003d816200011560201b60201c565b506200006a336000670de0b6b3a7640000604051806020016040528060008152506200013160201b60201c565b6200009a3360016b033b2e3c9fd0803ce8000000604051806020016040528060008152506200013160201b60201c565b620000bf3360026001604051806020016040528060008152506200013160201b60201c565b620000e7336003633b9aca00604051806020016040528060008152506200013160201b60201c565b6200010f336004633b9aca00604051806020016040528060008152506200013160201b60201c565b62000cd8565b80600290805190602001906200012d92919062000629565b5050565b600073ffffffffffffffffffffffffffffffffffffffff168473ffffffffffffffffffffffffffffffffffffffff161415620001a4576040517f08c379a00000000000000000000000000000000000000000000000000000000081526004016200019b90620009a2565b60405180910390fd5b6000620001b66200031960201b60201c565b90506000620001cb856200032160201b60201c565b90506000620001e0856200032160201b60201c565b9050620001f983600089858589620003ea60201b60201c565b8460008088815260200190815260200160002060008973ffffffffffffffffffffffffffffffffffffffff1673ffffffffffffffffffffffffffffffffffffffff16815260200190815260200160002060008282546200025a919062000a4b565b925050819055508673ffffffffffffffffffffffffffffffffffffffff16600073ffffffffffffffffffffffffffffffffffffffff168473ffffffffffffffffffffffffffffffffffffffff167fc3d58168c5ae7397731d063d5bbf3d657854427343f4c083240f7aacaa2d0f628989604051620002da929190620009e6565b60405180910390a4620002f983600089858589620003f260201b60201c565b6200031083600089898989620003fa60201b60201c565b50505050505050565b600033905090565b60606000600167ffffffffffffffff81111562000367577f4e487b7100000000000000000000000000000000000000000000000000000000600052604160045260246000fd5b604051908082528060200260200182016040528015620003965781602001602082028036833780820191505090505b5090508281600081518110620003d5577f4e487b7100000000000000000000000000000000000000000000000000000000600052603260045260246000fd5b60200260200101818152505080915050919050565b505050505050565b505050505050565b620004268473ffffffffffffffffffffffffffffffffffffffff16620005ea60201b620008a21760201c565b15620005e2578373ffffffffffffffffffffffffffffffffffffffff1663f23a6e6187878686866040518663ffffffff1660e01b81526004016200046f959493929190620008f8565b602060405180830381600087803b1580156200048a57600080fd5b505af1925050508015620004be57506040513d601f19601f82011682018060405250810190620004bb9190620006f0565b60015b6200055657620004cd62000bfa565b80620004da575062000519565b806040517f08c379a00000000000000000000000000000000000000000000000000000000081526004016200051091906200095c565b60405180910390fd5b6040517f08c379a00000000000000000000000000000000000000000000000000000000081526004016200054d90620009c4565b60405180910390fd5b63f23a6e6160e01b7bffffffffffffffffffffffffffffffffffffffffffffffffffffffff1916817bffffffffffffffffffffffffffffffffffffffffffffffffffffffff191614620005e0576040517f08c379a0000000000000000000000000000000000000000000000000000000008152600401620005d79062000980565b60405180910390fd5b505b505050505050565b6000808273ffffffffffffffffffffffffffffffffffffffff16803b806020016040519081016040528181526000908060200190933c51119050919050565b828054620006379062000b48565b90600052602060002090601f0160209004810192826200065b5760008555620006a7565b82601f106200067657805160ff1916838001178555620006a7565b82800160010185558215620006a7579182015b82811115620006a657825182559160200191906001019062000689565b5b509050620006b69190620006ba565b5090565b5b80821115620006d5576000816000905550600101620006bb565b5090565b600081519050620006ea8162000cbe565b92915050565b6000602082840312156200070357600080fd5b60006200071384828501620006d9565b91505092915050565b620007278162000aa8565b82525050565b60006200073a8262000a13565b62000746818562000a29565b93506200075881856020860162000b12565b620007638162000bdc565b840191505092915050565b60006200077b8262000a1e565b62000787818562000a3a565b93506200079981856020860162000b12565b620007a48162000bdc565b840191505092915050565b6000620007be60288362000a3a565b91507f455243313135353a204552433131353552656365697665722072656a6563746560008301527f6420746f6b656e730000000000000000000000000000000000000000000000006020830152604082019050919050565b60006200082660218362000a3a565b91507f455243313135353a206d696e7420746f20746865207a65726f2061646472657360008301527f73000000000000000000000000000000000000000000000000000000000000006020830152604082019050919050565b60006200088e60348362000a3a565b91507f455243313135353a207472616e7366657220746f206e6f6e2d4552433131353560008301527f526563656976657220696d706c656d656e7465720000000000000000000000006020830152604082019050919050565b620008f28162000b08565b82525050565b600060a0820190506200090f60008301886200071c565b6200091e60208301876200071c565b6200092d6040830186620008e7565b6200093c6060830185620008e7565b81810360808301526200095081846200072d565b90509695505050505050565b600060208201905081810360008301526200097881846200076e565b905092915050565b600060208201905081810360008301526200099b81620007af565b9050919050565b60006020820190508181036000830152620009bd8162000817565b9050919050565b60006020820190508181036000830152620009df816200087f565b9050919050565b6000604082019050620009fd6000830185620008e7565b62000a0c6020830184620008e7565b9392505050565b600081519050919050565b600081519050919050565b600082825260208201905092915050565b600082825260208201905092915050565b600062000a588262000b08565b915062000a658362000b08565b9250827fffffffffffffffffffffffffffffffffffffffffffffffffffffffffffffffff0382111562000a9d5762000a9c62000b7e565b5b828201905092915050565b600062000ab58262000ae8565b9050919050565b60007fffffffff0000000000000000000000000000000000000000000000000000000082169050919050565b600073ffffffffffffffffffffffffffffffffffffffff82169050919050565b6000819050919050565b60005b8381101562000b3257808201518184015260208101905062000b15565b8381111562000b42576000848401525b50505050565b6000600282049050600182168062000b6157607f821691505b6020821081141562000b785762000b7762000bad565b5b50919050565b7f4e487b7100000000000000000000000000000000000000000000000000000000600052601160045260246000fd5b7f4e487b7100000000000000000000000000000000000000000000000000000000600052602260045260246000fd5b6000601f19601f8301169050919050565b60008160e01c9050919050565b600060443d101562000c0c5762000cbb565b60046000803e62000c1f60005162000bed565b6308c379a0811462000c32575062000cbb565b60405160043d036004823e80513d602482011167ffffffffffffffff8211171562000c605750505062000cbb565b808201805167ffffffffffffffff81111562000c8157505050505062000cbb565b8060208301013d850181111562000c9e5750505050505062000cbb565b62000ca98262000bdc565b60208401016040528296505050505050505b90565b62000cc98162000abc565b811462000cd557600080fd5b50565b6126408062000ce86000396000f3fe608060405234801561001057600080fd5b50600436106100ce5760003560e01c80634e1273f41161008c578063d562e20411610066578063d562e20414610225578063e3e55f0814610243578063e985e9c514610261578063f242432a14610291576100ce565b80634e1273f4146101bb5780635b2725ed146101eb578063a22cb46514610209576100ce565b8062fdd58e146100d357806301ffc9a7146101035780630e89341c1461013357806313dc989f146101635780632eb2c2d6146101815780633e4bee381461019d575b600080fd5b6100ed60048036038101906100e89190611903565b6102ad565b6040516100fa9190612158565b60405180910390f35b61011d600480360381019061011891906119ab565b610376565b60405161012a9190611ffb565b60405180910390f35b61014d600480360381019061014891906119fd565b610458565b60405161015a9190612016565b60405180910390f35b61016b6104ec565b6040516101789190612158565b60405180910390f35b61019b60048036038101906101969190611779565b6104f1565b005b6101a5610592565b6040516101b29190612158565b60405180910390f35b6101d560048036038101906101d0919061193f565b610597565b6040516101e29190611fa2565b60405180910390f35b6101f3610748565b6040516102009190612158565b60405180910390f35b610223600480360381019061021e91906118c7565b61074d565b005b61022d610763565b60405161023a9190612158565b60405180910390f35b61024b610768565b6040516102589190612158565b60405180910390f35b61027b6004803603810190610276919061173d565b61076d565b6040516102889190611ffb565b60405180910390f35b6102ab60048036038101906102a69190611838565b610801565b005b60008073ffffffffffffffffffffffffffffffffffffffff168373ffffffffffffffffffffffffffffffffffffffff16141561031e576040517f08c379a000000000000000000000000000000000000000000000000000000000815260040161031590612058565b60405180910390fd5b60008083815260200190815260200160002060008473ffffffffffffffffffffffffffffffffffffffff1673ffffffffffffffffffffffffffffffffffffffff16815260200190815260200160002054905092915050565b60007fd9b67a26000000000000000000000000000000000000000000000000000000007bffffffffffffffffffffffffffffffffffffffffffffffffffffffff1916827bffffffffffffffffffffffffffffffffffffffffffffffffffffffff1916148061044157507f0e89341c000000000000000000000000000000000000000000000000000000007bffffffffffffffffffffffffffffffffffffffffffffffffffffffff1916827bffffffffffffffffffffffffffffffffffffffffffffffffffffffff1916145b806104515750610450826108e1565b5b9050919050565b606060028054610467906123d2565b80601f0160208091040260200160405190810160405280929190818152602001828054610493906123d2565b80156104e05780601f106104b5576101008083540402835291602001916104e0565b820191906000526020600020905b8154815290600101906020018083116104c357829003601f168201915b50505050509050919050565b600381565b6104f961094b565b73ffffffffffffffffffffffffffffffffffffffff168573ffffffffffffffffffffffffffffffffffffffff16148061053f575061053e8561053961094b565b61076d565b5b61057e576040517f08c379a000000000000000000000000000000000000000000000000000000000815260040161057590612078565b60405180910390fd5b61058b8585858585610953565b5050505050565b600081565b606081518351146105dd576040517f08c379a00000000000000000000000000000000000000000000000000000000081526004016105d4906120f8565b60405180910390fd5b6000835167ffffffffffffffff811115610620577f4e487b7100000000000000000000000000000000000000000000000000000000600052604160045260246000fd5b60405190808252806020026020018201604052801561064e5781602001602082028036833780820191505090505b50905060005b845181101561073d576106e7858281518110610699577f4e487b7100000000000000000000000000000000000000000000000000000000600052603260045260246000fd5b60200260200101518583815181106106da577f4e487b7100000000000000000000000000000000000000000000000000000000600052603260045260246000fd5b60200260200101516102ad565b828281518110610720577f4e487b7100000000000000000000000000000000000000000000000000000000600052603260045260246000fd5b6020026020010181815250508061073690612404565b9050610654565b508091505092915050565b600481565b61075f61075861094b565b8383610cc1565b5050565b600281565b600181565b6000600160008473ffffffffffffffffffffffffffffffffffffffff1673ffffffffffffffffffffffffffffffffffffffff16815260200190815260200160002060008373ffffffffffffffffffffffffffffffffffffffff1673ffffffffffffffffffffffffffffffffffffffff16815260200190815260200160002060009054906101000a900460ff16905092915050565b61080961094b565b73ffffffffffffffffffffffffffffffffffffffff168573ffffffffffffffffffffffffffffffffffffffff16148061084f575061084e8561084961094b565b61076d565b5b61088e576040517f08c379a000000000000000000000000000000000000000000000000000000000815260040161088590612078565b60405180910390fd5b61089b8585858585610e2e565b5050505050565b6000808273ffffffffffffffffffffffffffffffffffffffff16803b806020016040519081016040528181526000908060200190933c51119050919050565b60007f01ffc9a7000000000000000000000000000000000000000000000000000000007bffffffffffffffffffffffffffffffffffffffffffffffffffffffff1916827bffffffffffffffffffffffffffffffffffffffffffffffffffffffff1916149050919050565b600033905090565b8151835114610997576040517f08c379a000000000000000000000000000000000000000000000000000000000815260040161098e90612118565b60405180910390fd5b600073ffffffffffffffffffffffffffffffffffffffff168473ffffffffffffffffffffffffffffffffffffffff161415610a07576040517f08c379a00000000000000000000000000000000000000000000000000000000081526004016109fe90612098565b60405180910390fd5b6000610a1161094b565b9050610a218187878787876110ca565b60005b8451811015610c1e576000858281518110610a68577f4e487b7100000000000000000000000000000000000000000000000000000000600052603260045260246000fd5b602002602001015190506000858381518110610aad577f4e487b7100000000000000000000000000000000000000000000000000000000600052603260045260246000fd5b60200260200101519050600080600084815260200190815260200160002060008b73ffffffffffffffffffffffffffffffffffffffff1673ffffffffffffffffffffffffffffffffffffffff16815260200190815260200160002054905081811015610b4e576040517f08c379a0000000000000000000000000000000000000000000000000000000008152600401610b45906120b8565b60405180910390fd5b81810360008085815260200190815260200160002060008c73ffffffffffffffffffffffffffffffffffffffff1673ffffffffffffffffffffffffffffffffffffffff168152602001908152602001600020819055508160008085815260200190815260200160002060008b73ffffffffffffffffffffffffffffffffffffffff1673ffffffffffffffffffffffffffffffffffffffff1681526020019081526020016000206000828254610c0391906122c6565b9250508190555050505080610c1790612404565b9050610a24565b508473ffffffffffffffffffffffffffffffffffffffff168673ffffffffffffffffffffffffffffffffffffffff168273ffffffffffffffffffffffffffffffffffffffff167f4a39dc06d4c0dbc64b70af90fd698a233a518aa5d07e595d983b8c0526c8f7fb8787604051610c95929190611fc4565b60405180910390a4610cab8187878787876110d2565b610cb98187878787876110da565b505050505050565b8173ffffffffffffffffffffffffffffffffffffffff168373ffffffffffffffffffffffffffffffffffffffff161415610d30576040517f08c379a0000000000000000000000000000000000000000000000000000000008152600401610d27906120d8565b60405180910390fd5b80600160008573ffffffffffffffffffffffffffffffffffffffff1673ffffffffffffffffffffffffffffffffffffffff16815260200190815260200160002060008473ffffffffffffffffffffffffffffffffffffffff1673ffffffffffffffffffffffffffffffffffffffff16815260200190815260200160002060006101000a81548160ff0219169083151502179055508173ffffffffffffffffffffffffffffffffffffffff168373ffffffffffffffffffffffffffffffffffffffff167f17307eab39ab6107e8899845ad3d59bd9653f200f220920489ca2b5937696c3183604051610e219190611ffb565b60405180910390a3505050565b600073ffffffffffffffffffffffffffffffffffffffff168473ffffffffffffffffffffffffffffffffffffffff161415610e9e576040517f08c379a0000000000000000000000000000000000000000000000000000000008152600401610e9590612098565b60405180910390fd5b6000610ea861094b565b90506000610eb5856112aa565b90506000610ec2856112aa565b9050610ed28389898585896110ca565b600080600088815260200190815260200160002060008a73ffffffffffffffffffffffffffffffffffffffff1673ffffffffffffffffffffffffffffffffffffffff16815260200190815260200160002054905085811015610f69576040517f08c379a0000000000000000000000000000000000000000000000000000000008152600401610f60906120b8565b60405180910390fd5b85810360008089815260200190815260200160002060008b73ffffffffffffffffffffffffffffffffffffffff1673ffffffffffffffffffffffffffffffffffffffff168152602001908152602001600020819055508560008089815260200190815260200160002060008a73ffffffffffffffffffffffffffffffffffffffff1673ffffffffffffffffffffffffffffffffffffffff168152602001908152602001600020600082825461101e91906122c6565b925050819055508773ffffffffffffffffffffffffffffffffffffffff168973ffffffffffffffffffffffffffffffffffffffff168573ffffffffffffffffffffffffffffffffffffffff167fc3d58168c5ae7397731d063d5bbf3d657854427343f4c083240f7aacaa2d0f628a8a60405161109b929190612173565b60405180910390a46110b1848a8a86868a6110d2565b6110bf848a8a8a8a8a611370565b505050505050505050565b505050505050565b505050505050565b6110f98473ffffffffffffffffffffffffffffffffffffffff166108a2565b156112a2578373ffffffffffffffffffffffffffffffffffffffff1663bc197c8187878686866040518663ffffffff1660e01b815260040161113f959493929190611ee0565b602060405180830381600087803b15801561115957600080fd5b505af192505050801561118a57506040513d601f19601f8201168201806040525081019061118791906119d4565b60015b611219576111966124f8565b806111a157506111de565b806040517f08c379a00000000000000000000000000000000000000000000000000000000081526004016111d59190612016565b60405180910390fd5b6040517f08c379a000000000000000000000000000000000000000000000000000000000815260040161121090612138565b60405180910390fd5b63bc197c8160e01b7bffffffffffffffffffffffffffffffffffffffffffffffffffffffff1916817bffffffffffffffffffffffffffffffffffffffffffffffffffffffff1916146112a0576040517f08c379a000000000000000000000000000000000000000000000000000000000815260040161129790612038565b60405180910390fd5b505b505050505050565b60606000600167ffffffffffffffff8111156112ef577f4e487b7100000000000000000000000000000000000000000000000000000000600052604160045260246000fd5b60405190808252806020026020018201604052801561131d5781602001602082028036833780820191505090505b509050828160008151811061135b577f4e487b7100000000000000000000000000000000000000000000000000000000600052603260045260246000fd5b60200260200101818152505080915050919050565b61138f8473ffffffffffffffffffffffffffffffffffffffff166108a2565b15611538578373ffffffffffffffffffffffffffffffffffffffff1663f23a6e6187878686866040518663ffffffff1660e01b81526004016113d5959493929190611f48565b602060405180830381600087803b1580156113ef57600080fd5b505af192505050801561142057506040513d601f19601f8201168201806040525081019061141d91906119d4565b60015b6114af5761142c6124f8565b806114375750611474565b806040517f08c379a000000000000000000000000000000000000000000000000000000000815260040161146b9190612016565b60405180910390fd5b6040517f08c379a00000000000000000000000000000000000000000000000000000000081526004016114a690612138565b60405180910390fd5b63f23a6e6160e01b7bffffffffffffffffffffffffffffffffffffffffffffffffffffffff1916817bffffffffffffffffffffffffffffffffffffffffffffffffffffffff191614611536576040517f08c379a000000000000000000000000000000000000000000000000000000000815260040161152d90612038565b60405180910390fd5b505b505050505050565b600061155361154e846121cd565b61219c565b9050808382526020820190508285602086028201111561157257600080fd5b60005b858110156115a257816115888882611656565b845260208401935060208301925050600181019050611575565b5050509392505050565b60006115bf6115ba846121f9565b61219c565b905080838252602082019050828560208602820111156115de57600080fd5b60005b8581101561160e57816115f48882611728565b8452602084019350602083019250506001810190506115e1565b5050509392505050565b600061162b61162684612225565b61219c565b90508281526020810184848401111561164357600080fd5b61164e848285612390565b509392505050565b600081359050611665816125ae565b92915050565b600082601f83011261167c57600080fd5b813561168c848260208601611540565b91505092915050565b600082601f8301126116a657600080fd5b81356116b68482602086016115ac565b91505092915050565b6000813590506116ce816125c5565b92915050565b6000813590506116e3816125dc565b92915050565b6000815190506116f8816125dc565b92915050565b600082601f83011261170f57600080fd5b813561171f848260208601611618565b91505092915050565b600081359050611737816125f3565b92915050565b6000806040838503121561175057600080fd5b600061175e85828601611656565b925050602061176f85828601611656565b9150509250929050565b600080600080600060a0868803121561179157600080fd5b600061179f88828901611656565b95505060206117b088828901611656565b945050604086013567ffffffffffffffff8111156117cd57600080fd5b6117d988828901611695565b935050606086013567ffffffffffffffff8111156117f657600080fd5b61180288828901611695565b925050608086013567ffffffffffffffff81111561181f57600080fd5b61182b888289016116fe565b9150509295509295909350565b600080600080600060a0868803121561185057600080fd5b600061185e88828901611656565b955050602061186f88828901611656565b945050604061188088828901611728565b935050606061189188828901611728565b925050608086013567ffffffffffffffff8111156118ae57600080fd5b6118ba888289016116fe565b9150509295509295909350565b600080604083850312156118da57600080fd5b60006118e885828601611656565b92505060206118f9858286016116bf565b9150509250929050565b6000806040838503121561191657600080fd5b600061192485828601611656565b925050602061193585828601611728565b9150509250929050565b6000806040838503121561195257600080fd5b600083013567ffffffffffffffff81111561196c57600080fd5b6119788582860161166b565b925050602083013567ffffffffffffffff81111561199557600080fd5b6119a185828601611695565b9150509250929050565b6000602082840312156119bd57600080fd5b60006119cb848285016116d4565b91505092915050565b6000602082840312156119e657600080fd5b60006119f4848285016116e9565b91505092915050565b600060208284031215611a0f57600080fd5b6000611a1d84828501611728565b91505092915050565b6000611a328383611ec2565b60208301905092915050565b611a478161231c565b82525050565b6000611a5882612265565b611a628185612293565b9350611a6d83612255565b8060005b83811015611a9e578151611a858882611a26565b9750611a9083612286565b925050600181019050611a71565b5085935050505092915050565b611ab48161232e565b82525050565b6000611ac582612270565b611acf81856122a4565b9350611adf81856020860161239f565b611ae8816124da565b840191505092915050565b6000611afe8261227b565b611b0881856122b5565b9350611b1881856020860161239f565b611b21816124da565b840191505092915050565b6000611b396028836122b5565b91507f455243313135353a204552433131353552656365697665722072656a6563746560008301527f6420746f6b656e730000000000000000000000000000000000000000000000006020830152604082019050919050565b6000611b9f602a836122b5565b91507f455243313135353a2061646472657373207a65726f206973206e6f742061207660008301527f616c6964206f776e6572000000000000000000000000000000000000000000006020830152604082019050919050565b6000611c05602e836122b5565b91507f455243313135353a2063616c6c6572206973206e6f7420746f6b656e206f776e60008301527f6572206f7220617070726f7665640000000000000000000000000000000000006020830152604082019050919050565b6000611c6b6025836122b5565b91507f455243313135353a207472616e7366657220746f20746865207a65726f20616460008301527f64726573730000000000000000000000000000000000000000000000000000006020830152604082019050919050565b6000611cd1602a836122b5565b91507f455243313135353a20696e73756666696369656e742062616c616e636520666f60008301527f72207472616e73666572000000000000000000000000000000000000000000006020830152604082019050919050565b6000611d376029836122b5565b91507f455243313135353a2073657474696e6720617070726f76616c2073746174757360008301527f20666f722073656c6600000000000000000000000000000000000000000000006020830152604082019050919050565b6000611d9d6029836122b5565b91507f455243313135353a206163636f756e747320616e6420696473206c656e67746860008301527f206d69736d6174636800000000000000000000000000000000000000000000006020830152604082019050919050565b6000611e036028836122b5565b91507f455243313135353a2069647320616e6420616d6f756e7473206c656e6774682060008301527f6d69736d617463680000000000000000000000000000000000000000000000006020830152604082019050919050565b6000611e696034836122b5565b91507f455243313135353a207472616e7366657220746f206e6f6e2d4552433131353560008301527f526563656976657220696d706c656d656e7465720000000000000000000000006020830152604082019050919050565b611ecb81612386565b82525050565b611eda81612386565b82525050565b600060a082019050611ef56000830188611a3e565b611f026020830187611a3e565b8181036040830152611f148186611a4d565b90508181036060830152611f288185611a4d565b90508181036080830152611f3c8184611aba565b90509695505050505050565b600060a082019050611f5d6000830188611a3e565b611f6a6020830187611a3e565b611f776040830186611ed1565b611f846060830185611ed1565b8181036080830152611f968184611aba565b90509695505050505050565b60006020820190508181036000830152611fbc8184611a4d565b905092915050565b60006040820190508181036000830152611fde8185611a4d565b90508181036020830152611ff28184611a4d565b90509392505050565b60006020820190506120106000830184611aab565b92915050565b600060208201905081810360008301526120308184611af3565b905092915050565b6000602082019050818103600083015261205181611b2c565b9050919050565b6000602082019050818103600083015261207181611b92565b9050919050565b6000602082019050818103600083015261209181611bf8565b9050919050565b600060208201905081810360008301526120b181611c5e565b9050919050565b600060208201905081810360008301526120d181611cc4565b9050919050565b600060208201905081810360008301526120f181611d2a565b9050919050565b6000602082019050818103600083015261211181611d90565b9050919050565b6000602082019050818103600083015261213181611df6565b9050919050565b6000602082019050818103600083015261215181611e5c565b9050919050565b600060208201905061216d6000830184611ed1565b92915050565b60006040820190506121886000830185611ed1565b6121956020830184611ed1565b9392505050565b6000604051905081810181811067ffffffffffffffff821117156121c3576121c26124ab565b5b8060405250919050565b600067ffffffffffffffff8211156121e8576121e76124ab565b5b602082029050602081019050919050565b600067ffffffffffffffff821115612214576122136124ab565b5b602082029050602081019050919050565b600067ffffffffffffffff8211156122405761223f6124ab565b5b601f19601f8301169050602081019050919050565b6000819050602082019050919050565b600081519050919050565b600081519050919050565b600081519050919050565b6000602082019050919050565b600082825260208201905092915050565b600082825260208201905092915050565b600082825260208201905092915050565b60006122d182612386565b91506122dc83612386565b9250827fffffffffffffffffffffffffffffffffffffffffffffffffffffffffffffffff038211156123115761231061244d565b5b828201905092915050565b600061232782612366565b9050919050565b60008115159050919050565b60007fffffffff0000000000000000000000000000000000000000000000000000000082169050919050565b600073ffffffffffffffffffffffffffffffffffffffff82169050919050565b6000819050919050565b82818337600083830152505050565b60005b838110156123bd5780820151818401526020810190506123a2565b838111156123cc576000848401525b50505050565b600060028204905060018216806123ea57607f821691505b602082108114156123fe576123fd61247c565b5b50919050565b600061240f82612386565b91507fffffffffffffffffffffffffffffffffffffffffffffffffffffffffffffffff8214156124425761244161244d565b5b600182019050919050565b7f4e487b7100000000000000000000000000000000000000000000000000000000600052601160045260246000fd5b7f4e487b7100000000000000000000000000000000000000000000000000000000600052602260045260246000fd5b7f4e487b7100000000000000000000000000000000000000000000000000000000600052604160045260246000fd5b6000601f19601f8301169050919050565b60008160e01c9050919050565b600060443d1015612508576125ab565b60046000803e6125196000516124eb565b6308c379a0811461252a57506125ab565b60405160043d036004823e80513d602482011167ffffffffffffffff82111715612556575050506125ab565b808201805167ffffffffffffffff8111156125755750505050506125ab565b8060208301013d8501811115612590575050505050506125ab565b612599826124da565b60208401016040528296505050505050505b90565b6125b78161231c565b81146125c257600080fd5b50565b6125ce8161232e565b81146125d957600080fd5b50565b6125e58161233a565b81146125f057600080fd5b50565b6125fc81612386565b811461260757600080fd5b5056fea2646970667358221220b8e88a79c2364c341ed6aa3c36b26b675eb548e7acdd901339a516243ef8d34c64736f6c6343000800003368747470733a2f2f67616d652e6578616d706c652f6170692f6974656d2f7b69647d2e6a736f6e",
  "immutableReferences": {},
  "source": "// contracts/GameItems.sol\r\n// SPDX-License-Identifier: MIT\r\npragma solidity ^0.8.0;\r\n\r\nimport {ERC1155} from \"@openzeppelin/contracts/token/ERC1155/ERC1155.sol\";\r\n\r\ncontract GameItems is ERC1155 {\r\n    uint256 public constant GOLD = 0;\r\n    uint256 public constant SILVER = 1;\r\n    uint256 public constant THORS_HAMMER = 2;\r\n    uint256 public constant SWORD = 3;\r\n    uint256 public constant SHIELD = 4;\r\n\r\n    constructor() ERC1155(\"https://game.example/api/item/{id}.json\") {\r\n        _mint(msg.sender, GOLD, 10**18, \"\");\r\n        _mint(msg.sender, SILVER, 10**27, \"\");\r\n        _mint(msg.sender, THORS_HAMMER, 1, \"\");\r\n        _mint(msg.sender, SWORD, 10**9, \"\");\r\n        _mint(msg.sender, SHIELD, 10**9, \"\");\r\n    }\r\n}",
  "sourcePath": "D:\\112-2\\lab\\monopolydapp\\contracts\\testERC.sol",
  "compiler": {
    "name": "solc",
    "version": "0.8.0+commit.c7dfd78e.Emscripten.clang"
  },
  "schemaVersion": "3.4.16",
  "updatedAt": "2024-05-08T07:02:39.679Z",
  "devdoc": {
    "kind": "dev",
    "methods": {
      "balanceOf(address,uint256)": {
        "details": "See {IERC1155-balanceOf}. Requirements: - `account` cannot be the zero address."
      },
      "balanceOfBatch(address[],uint256[])": {
        "details": "See {IERC1155-balanceOfBatch}. Requirements: - `accounts` and `ids` must have the same length."
      },
      "isApprovedForAll(address,address)": {
        "details": "See {IERC1155-isApprovedForAll}."
      },
      "safeBatchTransferFrom(address,address,uint256[],uint256[],bytes)": {
        "details": "See {IERC1155-safeBatchTransferFrom}."
      },
      "safeTransferFrom(address,address,uint256,uint256,bytes)": {
        "details": "See {IERC1155-safeTransferFrom}."
      },
      "setApprovalForAll(address,bool)": {
        "details": "See {IERC1155-setApprovalForAll}."
      },
      "supportsInterface(bytes4)": {
        "details": "See {IERC165-supportsInterface}."
      },
      "uri(uint256)": {
        "details": "See {IERC1155MetadataURI-uri}. This implementation returns the same URI for *all* token types. It relies on the token type ID substitution mechanism https://eips.ethereum.org/EIPS/eip-1155#metadata[defined in the EIP]. Clients calling this function must replace the `\\{id\\}` substring with the actual token type ID."
      }
    },
    "version": 1
  },
  "userdoc": {
    "kind": "user",
    "methods": {},
    "version": 1
  }
}