{
  "contractName": "MonopolyGame",
  "abi": [
    {
      "anonymous": false,
      "inputs": [
        {
          "indexed": false,
          "internalType": "address",
          "name": "player",
          "type": "address"
        },
        {
          "indexed": false,
          "internalType": "uint256",
          "name": "newPosition",
          "type": "uint256"
        }
      ],
      "name": "PlayerMoved",
      "type": "event"
    },
    {
      "inputs": [
        {
          "internalType": "address",
          "name": "",
          "type": "address"
        }
      ],
      "name": "playerPositions",
      "outputs": [
        {
          "internalType": "uint256",
          "name": "",
          "type": "uint256"
        }
      ],
      "stateMutability": "view",
      "type": "function",
      "constant": true
    },
    {
      "inputs": [
        {
          "internalType": "uint256",
          "name": "",
          "type": "uint256"
        }
      ],
      "name": "players",
      "outputs": [
        {
          "internalType": "address",
          "name": "",
          "type": "address"
        }
      ],
      "stateMutability": "view",
      "type": "function",
      "constant": true
    },
    {
      "inputs": [
        {
          "internalType": "address[4]",
          "name": "_players",
          "type": "address[4]"
        }
      ],
      "name": "initializePlayers",
      "outputs": [],
      "stateMutability": "nonpayable",
      "type": "function"
    },
    {
      "inputs": [],
      "name": "rollDice",
      "outputs": [
        {
          "internalType": "uint256",
          "name": "",
          "type": "uint256"
        }
      ],
      "stateMutability": "nonpayable",
      "type": "function"
    },
    {
      "inputs": [],
      "name": "movePlayer",
      "outputs": [],
      "stateMutability": "nonpayable",
      "type": "function"
    }
  ],
  "bytecode": "0x6080604052600060055534801561001557600080fd5b50610a81806100256000396000f3fe608060405234801561001057600080fd5b50600436106100575760003560e01c80635284b1f41461005c5780637c3b609414610066578063837e7cc614610082578063afcb20f1146100a0578063f71d96cb146100d0575b600080fd5b610064610100565b005b610080600480360381019061007b9190610621565b61021e565b005b61008a610379565b60405161009791906107c6565b60405180910390f35b6100ba60048036038101906100b591906105f8565b61042e565b6040516100c791906107c6565b60405180910390f35b6100ea60048036038101906100e5919061064a565b610446565b6040516100f79190610762565b60405180910390f35b600061010a610379565b90506028816000803373ffffffffffffffffffffffffffffffffffffffff1673ffffffffffffffffffffffffffffffffffffffff168152602001908152602001600020546101589190610849565b6101629190610952565b6000803373ffffffffffffffffffffffffffffffffffffffff1673ffffffffffffffffffffffffffffffffffffffff168152602001908152602001600020819055507fe0a1b340a14d47a5482875f738abb6e2c70f533d80188606facc527b70cbd212336000803373ffffffffffffffffffffffffffffffffffffffff1673ffffffffffffffffffffffffffffffffffffffff1681526020019081526020016000205460405161021392919061077d565b60405180910390a150565b60005b600481101561037557818160048110610263577f4e487b7100000000000000000000000000000000000000000000000000000000600052603260045260246000fd5b6020020151600182600481106102a2577f4e487b7100000000000000000000000000000000000000000000000000000000600052603260045260246000fd5b0160006101000a81548173ffffffffffffffffffffffffffffffffffffffff021916908373ffffffffffffffffffffffffffffffffffffffff160217905550600080600084846004811061031f577f4e487b7100000000000000000000000000000000000000000000000000000000600052603260045260246000fd5b602002015173ffffffffffffffffffffffffffffffffffffffff1673ffffffffffffffffffffffffffffffffffffffff16815260200190815260200160002081905550808061036d906108db565b915050610221565b5050565b60006103843361047c565b6103c3576040517f08c379a00000000000000000000000000000000000000000000000000000000081526004016103ba906107a6565b60405180910390fd5b60006001600642336005546040516020016103e093929190610725565b6040516020818303038152906040528051906020012060001c6104039190610952565b61040d9190610849565b905060056000815480929190610422906108db565b91905055508091505090565b60006020528060005260406000206000915090505481565b6001816004811061045657600080fd5b016000915054906101000a900473ffffffffffffffffffffffffffffffffffffffff1681565b600080600090505b6004811015610539578273ffffffffffffffffffffffffffffffffffffffff16600182600481106104de577f4e487b7100000000000000000000000000000000000000000000000000000000600052603260045260246000fd5b0160009054906101000a900473ffffffffffffffffffffffffffffffffffffffff1673ffffffffffffffffffffffffffffffffffffffff16141561052657600191505061053f565b8080610531906108db565b915050610484565b50600090505b919050565b600061055761055284610812565b6107e1565b9050808285602086028201111561056d57600080fd5b60005b8581101561059d578161058388826105a7565b845260208401935060208301925050600181019050610570565b5050509392505050565b6000813590506105b681610a1d565b92915050565b600082601f8301126105cd57600080fd5b60046105da848285610544565b91505092915050565b6000813590506105f281610a34565b92915050565b60006020828403121561060a57600080fd5b6000610618848285016105a7565b91505092915050565b60006080828403121561063357600080fd5b6000610641848285016105bc565b91505092915050565b60006020828403121561065c57600080fd5b600061066a848285016105e3565b91505092915050565b61067c8161089f565b82525050565b61069361068e8261089f565b610924565b82525050565b60006106a6602b83610838565b91507f4f6e6c792061207265676973746572656420706c617965722063616e20726f6c60008301527f6c2074686520646963652e0000000000000000000000000000000000000000006020830152604082019050919050565b610708816108d1565b82525050565b61071f61071a826108d1565b610948565b82525050565b6000610731828661070e565b6020820191506107418285610682565b601482019150610751828461070e565b602082019150819050949350505050565b60006020820190506107776000830184610673565b92915050565b60006040820190506107926000830185610673565b61079f60208301846106ff565b9392505050565b600060208201905081810360008301526107bf81610699565b9050919050565b60006020820190506107db60008301846106ff565b92915050565b6000604051905081810181811067ffffffffffffffff82111715610808576108076109e1565b5b8060405250919050565b600067ffffffffffffffff82111561082d5761082c6109e1565b5b602082029050919050565b600082825260208201905092915050565b6000610854826108d1565b915061085f836108d1565b9250827fffffffffffffffffffffffffffffffffffffffffffffffffffffffffffffffff0382111561089457610893610983565b5b828201905092915050565b60006108aa826108b1565b9050919050565b600073ffffffffffffffffffffffffffffffffffffffff82169050919050565b6000819050919050565b60006108e6826108d1565b91507fffffffffffffffffffffffffffffffffffffffffffffffffffffffffffffffff82141561091957610918610983565b5b600182019050919050565b600061092f82610936565b9050919050565b600061094182610a10565b9050919050565b6000819050919050565b600061095d826108d1565b9150610968836108d1565b925082610978576109776109b2565b5b828206905092915050565b7f4e487b7100000000000000000000000000000000000000000000000000000000600052601160045260246000fd5b7f4e487b7100000000000000000000000000000000000000000000000000000000600052601260045260246000fd5b7f4e487b7100000000000000000000000000000000000000000000000000000000600052604160045260246000fd5b60008160601b9050919050565b610a268161089f565b8114610a3157600080fd5b50565b610a3d816108d1565b8114610a4857600080fd5b5056fea264697066735822122046087f6a03e7cca69f55a598e54f0b730c985485de5d809858ed888c6fc0182564736f6c63430008000033",
  "immutableReferences": {},
  "source": "// SPDX-License-Identifier: MIT\r\npragma solidity ^0.8.0;\r\n\r\ncontract MonopolyGame {\r\n    mapping(address => uint256) public playerPositions;\r\n    address[4] public players;  // \r\n    uint256 private nonce = 0;\r\n\r\n    // \r\n    event PlayerMoved(address player, uint256 newPosition);\r\n\r\n    // \r\n    function initializePlayers(address[4] memory _players) public {\r\n        for (uint i = 0; i < _players.length; i++) {\r\n            players[i] = _players[i];\r\n            playerPositions[_players[i]] = 0; // 0\r\n        }\r\n    }\r\n\r\n    // 16\r\n    function rollDice() public returns (uint256) {\r\n        require(isPlayer(msg.sender), \"Only a registered player can roll the dice.\");\r\n        uint256 dice = uint256(keccak256(abi.encodePacked(block.timestamp, msg.sender, nonce))) % 6 + 1;\r\n        nonce++;\r\n        return dice;\r\n    }\r\n\r\n    // \r\n    function isPlayer(address _address) private view returns (bool) {\r\n        for (uint i = 0; i < players.length; i++) {\r\n            if (players[i] == _address) {\r\n                return true;\r\n            }\r\n        }\r\n        return false;\r\n    }\r\n\r\n    // \r\n    function movePlayer() public {\r\n        uint256 diceResult = rollDice();\r\n        playerPositions[msg.sender] = (playerPositions[msg.sender] + diceResult) % 40; // 40\r\n        emit PlayerMoved(msg.sender, playerPositions[msg.sender]);\r\n    }\r\n}\r\n",
  "sourcePath": "D:\\112-2\\lab\\monopolydapp\\contracts\\MonopolyGame.sol",
  "compiler": {
    "name": "solc",
    "version": "0.8.0+commit.c7dfd78e.Emscripten.clang"
  },
  "schemaVersion": "3.4.16",
  "updatedAt": "2024-06-19T12:29:11.537Z",
  "networkType": "ethereum",
  "devdoc": {
    "kind": "dev",
    "methods": {},
    "version": 1
  },
  "userdoc": {
    "kind": "user",
    "methods": {},
    "version": 1
  }
}